:020000040800F2
:1040000000000120C5420008CB420008CF42000852
:1040100041430008454300088D43000800000000AC
:10402000000000000000000000000000D543000870
:10403000D943000800000000DD4300080D4C0008D3
:10404000F1430008F1430008F1430008F143000880
:10405000F1430008F1430008BD470008DD470008B0
:10406000FD4700081D4800083D480008F1430008CE
:10407000F1430008F1430008F1430008F143000850
:10408000F1430008F1430008F1430008000000007C
:104090000000000000000000000000005D48000873
:1040A000F1430008F1430008F1430008F143000820
:1040B000F1430008F1430008F1430008F143000810
:1040C000F1430008F1430008F1430008F143000800
:1040D000F1430008F1430008F1430008000000002C
:1040E00091480008F1430008F14300080000000077
:1040F000000000000000000000000000F143000884
:1041000000000000F1430008F1430008F1430008FB
:10411000000000000000000000000000000000009F
:10412000F1430008F1430008F1430008F14300089F
:10413000F143000800000000000000000000000043
:10414000000000000000000000000000F143000833
:10415000F1430008F1430008F1430008F14300086F
:10416000F1430008F14300080000000000000000D7
:10417000000000000000000000000000000000003F
:1041800000000000F14300080000000000000000F3
:10419000F143000800B583B000F048FA384B394AC3
:1041A0001360394A1360394906E052F8041B43F89A
:1041B000041B9842F9D86146354B994205D20A68EA
:1041C0004B6801F10C0C8868F3E72E4B1A68314BF1
:1041D0009A4200D0FEE72C4B1A682F4B9A42F9D135
:1041E000274B2E4A13602E4A13602E4A00E00246E7
:1041F0002D4B9A4209D2104650F8083B516899421B
:10420000F5D9002243F8042BF9E7244B1B6813B9B6
:10421000234B1B6803B1FEE700F014FA694601A8BE
:1042200000F022F9214C224BE41AA410002504E0EE
:104230001F4B53F8253098470135AC42F8DC1D4C34
:104240001D4BE41AA410002504E01B4B53F8253045
:1042500098470135AC42F8DC0099019800F004FD64
:104260000546164C164BE41AA41004E0013C144B0E
:1042700053F824309847002CF8DC284600F0D0F89A
:10428000BABADECA0000002064000020F44300082F
:104290000C44000878563412325476986800002096
:1042A0004C0100200C4400081C4400081C44000879
:1042B0001C4400081C4400081C4400081C4400085E
:1042C0001C44000808B5FFF765FF00BEFEE71EF0BE
:1042D000040F0CBFEFF30880EFF309807146414AE9
:1042E00010472DE9F04182B004460D46124B5F6B3A
:1042F000D3F838809E6A1B6B13F0020F03D00E4B6D
:10430000DB6A002B0BDB0D4800F0ECF80095434610
:104310003A463146204600F0FFF800BEFEE74BF675
:10432000AB6100F073F90028EDD0034B4FF0004271
:10433000DA6202B0BDE8F08100ED00E0F857000855
:1043400000BEFEE71EF0040F0CBFEFF30880EFF392
:1043500009807146244A10472DE9F04182B0044695
:104360000D46084B5F6BD3F838809E6A064800F014
:10437000B9F8009543463A463146204600F0CCF85D
:1043800000BEFEE700ED00E0085800081EF0040F34
:104390000CBFEFF30880EFF309807146134A104712
:1043A0002DE9F04182B004460D46084B5F6BD3F80F
:1043B00038809E6A064800F095F8009543463A46D4
:1043C0003146204600F0A8F800BEFEE700ED00E010
:1043D0001458000800BEFEE700BEFEE700BEFEE780
:1043E00070470000E342000859430008A143000859
:0443F00000BEFEE726
:1043F400E85800080000002068000020E858000881
:10440400000000100000001068000020500100208F
:08441400000000100000001080
:10442000FEE7000008B503460C4A12685AB10B4A71
:104430001068033323F003030344094A934206D868
:10444000064A136008BD054A06491160EFE700F00F
:1044500091FC0C2303604FF0FF30F3E76C00002069
:1044600000FC00205001002001230360014B0B6081
:10447000704700BF040000202DE9F04385B00446DA
:104480000F4643563BBB042528462146ABBE054696
:10449000384605B0BDE8F08314F901CB03F11002F2
:1044A0006A4402F810CC0133AB42F5D310336B44AD
:1044B000002203F8102C4FF00408E9464046494614
:1044C000ABBE8046761B002EE2D03546102E28BFAC
:1044D00010250023E8E70E46F5E708B5FFF7CCFF07
:1044E00008BD00000FB400B583B004AB53F8042B33
:1044F00001938021074800F02FFC002804DC03B062
:104500005DF804EB04B0704701460248FFF7E5FF91
:10451000F5E700BF78000020F8B504460D461746C1
:104520001E462748FFF7DEFF21682648FFF7DAFF1F
:1045300061682548FFF7D6FFA1682448FFF7D2FF3E
:10454000E1682348FFF7CEFF21692248FFF7CAFF41
:1045500061692148FFF7C6FFA1692048FFF7C2FF44
:10456000E1691F48FFF7BEFF1E48FFF7BBFF294662
:104570001D48FFF7B7FF1D4CE16A1D48FFF7B2FF6A
:10458000216B1C48FFF7AEFFE16B1B48FFF7AAFF4A
:1045900015F0800F0AD115F4004F0CD11748FFF722
:1045A000A1FF06991648FFF79DFFF8BD394615484B
:1045B000FFF798FFEFE731461348FFF793FFEDE76A
:1045C000DC560008EC560008FC5600080C570008A2
:1045D0001C5700082C5700083C5700084C5700088F
:1045E0005C5700086C5700087857000800ED00E0A1
:1045F0008857000898570008A8570008D85700089F
:10460000E0570008B8570008C857000883691A889F
:104610008A4201D0002070470268033A012A01D97A
:1046200000207047023383610120704708B500F015
:104630000DF8024A024B9A6008BD00BF0040000816
:1046400000ED00E008B500F009F808BD024B4FF09E
:1046500000629A60704700BF00ED00E0224B9B684B
:1046600003F00C03042B14D0082B16D01BB11F4BE6
:104670001F4A1A6002E01D4B1D4A1A601A4B9B68C4
:10468000C3F303131B4AD15C184A1368CB40136071
:104690007047164B184A1A60F0E7134B59685A686E
:1046A00002F03F0211F4800F13D0134BB3FBF2F36F
:1046B0000D4A5268C2F3881202FB03F30A4A526899
:1046C000C2F3014201325200B3FBF2F3074A136016
:1046D000D4E7074BB3FBF2F3034A5268C2F38812E4
:1046E00002FB03F3EAE700BF003802400C000020A1
:1046F0000024F4002458000840787D0110B48B0891
:104700000B4A023352F8234001F0030189004FF0B5
:104710000F0C0CFA01FC24EA0C0442F8234052F876
:1047200023408840044342F8234010BC704700BF38
:1047300000380140012908D031B907490B6801222E
:10474000824023EA02030B60704703490B68012291
:10475000824013430B607047003C014051B9124B3B
:10476000D9680122824021EA0201D96099680A438E
:104770009A607047012902D002290BD070470A4B7A
:1047800099680122824021EA02019960D9680A43AE
:10479000DA607047044A91680123834019439160AD
:1047A000D1680B43D360E9E7003C014011B1024AF4
:1047B00042F82010704700BFF800002008B5054BF4
:1047C0001B6803B19847044A536943F001035361DE
:1047D00008BD00BFF8000020003C014008B5054BB3
:1047E0005B6803B19847044A536943F0020353617D
:1047F00008BD00BFF8000020003C014008B5054B93
:104800009B6803B19847044A536943F0040353611A
:1048100008BD00BFF8000020003C014008B5054B72
:10482000DB6803B19847044A536943F008035361B6
:1048300008BD00BFF8000020003C014008B5054B52
:104840001B6903B19847044A536943F0100353614D
:1048500008BD00BFF8000020003C014038B5052429
:1048600007E009494B690122AA4013434B61013417
:10487000E4B2092C07D82546044B53F82430002B0A
:10488000EFD09847EDE738BD003C0140F80000202C
:1048900038B50A2408E0984708494B690122AA4024
:1048A00013434B610134E4B20F2C06D82546044B68
:1048B00053F82430002BEED1EEE738BD003C014028
:1048C000F8000020034620B9A1F10D00C0B2022873
:1048D00006D9012B05D0012B18D0022B26D02BB1E5
:1048E0007047C81EC0B20128F5D8F9E7174B186801
:1048F00049004FF0030C0CFA01FC20EA0C00186090
:10490000186802FA01F1014319607047104B1868EA
:1049100049004FF0030C0CFA01FC20EA0C0018606F
:10492000186802FA01F1014319607047094B1868D1
:1049300049004FF0030C0CFA01FC20EA0C0018604F
:1049400018688A4002431A60CAE700BF00000240AC
:10495000000402400008024010B4044620B9A1F14E
:104960000D00C0B2022806D9012C06D0012C23D09C
:10497000022C3BD034B110BC7047C81EC0B2012815
:10498000F4D8F8E7264844684FF0010C0CFA01FC13
:1049900024EA0C04446044688A40224342608268EE
:1049A000490003248C4022EA04028260826803FAF0
:1049B00001F10A438260DEE71A4844684FF0010CB7
:1049C0000CFA01FC24EA0C04446044688A40224347
:1049D00042608268490003248C4022EA040282601B
:1049E000826803FA01F10A438260C4E70E48446812
:1049F0004FF0010C0CFA01FC24EA0C0444604468FA
:104A00008A40224342608268490003248C4022EAA3
:104A10000402826082688B4013438360ABE700BF6F
:104A2000000002400004024000080240034620B992
:104A3000A1F10D00C0B2022806D9012B05D0012B2F
:104A400018D0022B26D02BB17047C81EC0B2012847
:104A5000F5D8F9E7174BD86849004FF0030C0CFA6A
:104A600001FC20EA0C00D860D86802FA01F1014389
:104A7000D9607047104BD86849004FF0030C0CFA0E
:104A800001FC20EA0C00D860D86802FA01F1014369
:104A9000D9607047094BD86849004FF0030C0CFAF5
:104AA00001FC20EA0C00D860D8688A400243DA6032
:104AB000CAE700BF000002400004024000080240B4
:104AC000034620B9A1F10D00C0B2022806D9012B7E
:104AD00005D0012B16D0022B22D02BB17047C81E57
:104AE000C0B20128F5D8F9E7144B58694FF0010C12
:104AF0000CFA01FC20EA0C00586158698A40024314
:104B00005A6170470E4B58694FF0010C0CFA01FCCA
:104B100020EA0C00586158698A4002435A61704784
:104B2000084B58694FF0010C0CFA01FC20EA0C000C
:104B3000586158698A4002435A61CFE70000024039
:104B400000040240000802404FEA501C054951F899
:104B50002C3000F01F0001228240134341F82C301A
:104B6000704700BF00E100E0114B1A6822F4802278
:104B70001A601A6822F080721A601A6822F0010224
:104B80001A601A6842F480321A60094B1B6813F4E9
:104B9000003FFAD0064B9A6822F003029A609A68A6
:104BA00042F001029A601A6822F400221A607047EB
:104BB000003802401F2920D803281ED8DFE800F063
:104BC000020910170D48036C01228A401343036445
:104BD00070470A48436C01228A401343436470477C
:104BE0000648036B01228A4013430363704703485E
:104BF000436B01228A4013434363704700380240ED
:104C00004FF0E02304221A617047000008B50B4BF7
:104C10001B688BB10A4B1B7843B94FF0E0231A692C
:104C200022F002021A6100225A619A61034B1B684A
:104C300098474FF0E0231B6908BD00BF38010020F2
:104C400034010020054B00221A70054B4FF0E02282
:104C5000C2F8083D5A68034B1A60704710000020E4
:104C6000000002083C01002008B500210220FFF7E7
:104C7000A1FFFFF779FFFFF7C3FF012200210846DC
:104C8000FFF720FE0223002211461046FFF764FEC4
:104C9000012200210846FFF713FF002207211046DA
:104CA000FFF710FE012207210020FFF7BFFE114988
:104CB0000720FFF77BFD07210020FFF71FFD0121E3
:104CC0000720FFF74BFD01210720FFF733FD1720D9
:104CD000FFF73AFF084B1B78002BFBD1074B1B68F3
:104CE0009847054B1B78002BFBD1044B1B6898475A
:104CF00008BD00BF454C0008100000203C0100200A
:104D000030B51446002C9BB005461A4605DA8B23B5
:104D100003604FF0FF301BB030BD4FF40273ADF8AD
:104D20000C3014BF04F1FF332346029305934FF672
:104D3000FF7300910491ADF80E3069461E9B00F0A0
:104D40007BF8431CBCBF8B232B60002CE3D0009B63
:104D500000221A70DFE7000007B5009313460A46E9
:104D6000014603480068FFF7CBFF03B05DF804FB82
:104D700014000020014B1868704700BF1400002089
:104D80002DE9F0478E681F46BE420B6882460C46EE
:104D900090462DD8B1F90C2012F4906F26D0656999
:104DA000096905EB4505A3EB010905EBD5757B1CEE
:104DB0004B446D109D4238BF1D46530527D52946EB
:104DC00000F0B8FB064660B321694A4600F038FBA4
:104DD000A38923F4906343F08003A3812661656176
:104DE0004E44A5EB09052660A5603E46BE4200D9AB
:104DF0003E4620683246414600F0B4FAA3689B1B49
:104E0000A3602368334423600020BDE8F0872A466E
:104E100000F01CFC06460028E0D12169504600F055
:104E20001DFB0C23CAF80030A38943F04003A38183
:104E30004FF0FF30E9E700002DE9F04F98468B89ED
:104E40001B069DB007460D46144610D50B6973B975
:104E5000402100F06FFB2860286130B90C233B60D3
:104E60004FF0FF301DB0BDE8F08F40236B61002391
:104E7000099320238DF82930CDF80C803023DFF8FA
:104E80009C818DF82A304FF0010923469A4613F889
:104E9000012B0AB1252AF9D1BAEB040B0BD05B46E2
:104EA000224629463846FFF76BFF013000F0A78005
:104EB000099A5A4409929AF80030002B00F09F801A
:104EC00000234FF0FF32CDE905230AF1010A0493D4
:104ED00007938DF853301A935446052214F8011B9A
:104EE0004E4800F05DFA049AD8B9D00644BF20239A
:104EF0008DF85330110744BF2B238DF853309AF8A7
:104F000000302A2B15D0079A544600204FF00A0C87
:104F1000214611F8013B303B092B4BD9B0B1079228
:104F200014E0A0EB080309FA03F313430493A24629
:104F3000D2E7039B191D1B680391002BBBBF5B428B
:104F400042F0020207930793B8BF049223782E2BF6
:104F50000AD163782A2B32D1039B1A1D1B68039256
:104F600043EAE37302340593DFF8B4A02178032207
:104F7000504600F015FA38B1049BA0EB0A0040221D
:104F8000824013430134049314F8011B25488DF823
:104F90002810062200F004FA002836D0224B1BBB52
:104FA000039B073323F0070308330393099B334420
:104FB00009936AE70CFB02320C460120A8E70023A4
:104FC0000134059319464FF00A0C204610F8012BC6
:104FD000303A092A03D9002BC6D00591C4E70CFB4F
:104FE000012104460123F0E703AB00932A460F4B4F
:104FF00004A93846AFF30080421C0646D6D1AB89DF
:105000005B063FF52DAF09982CE703AB00932A46CA
:10501000064B04A9384600F079F8EDE7345800084B
:105020003A5800083E58000800000000814D000872
:105030002DE9F047164698468A680B69DDF82090FE
:105040009342B8BF1346336091F8432007460C469D
:105050000AB1013333602368990642BF33680233D3
:105060003360256815F0060506D104F1190AE368D6
:1050700032689B1AAB4226DC94F843302268003B2E
:1050800018BF012392062BD404F14302414638464F
:10509000C84701301ED02368226903F00603042BA1
:1050A00002BFE5683368ED1AA3680CBF25EAE57511
:1050B00000259342C4BF9B1AED1800261A34B5424E
:1050C0001AD1002008E00123524641463846C8471D
:1050D000013003D14FF0FF30BDE8F0870135C6E75E
:1050E000E1185A1C302081F84300224494F84510FE
:1050F00082F843100233C7E701232246414638466F
:10510000C8470130E6D00136D9E700002DE9FF4756
:105110000F7E0C9E782F914680460C469A4601F1F0
:10512000430207D8622F0AD8002F00F0DD80582FE5
:1051300000F0C38004F1420684F842703AE0A7F11F
:105140006303152BF6D801A151F823F0A5510008EF
:10515000B951000835510008355100083551000893
:1051600035510008B9510008355100083551000883
:105170003551000835510008CF5200084752000849
:10518000875200083551000835510008F1520008D7
:1051900035510008475200083551000835510008C4
:1051A0008F52000833681A1D1B68326004F14206F2
:1051B00084F842300123A8E031682368081D30607C
:1051C0001E0601D50D6803E05D06FBD5B1F9005060
:1051D0006168002D78DA2D20002984F84300A16051
:1051E0002DDA5E486D420A231646B5FBF3F103FB48
:1051F0001157C75D06F8017D2F46BB420D46F4D915
:10520000082B0BD12368DF0708D523696168994211
:10521000DEBF302306F8013C06F1FF36921B226107
:10522000CDF800A04B4603AA21464046FFF700FFF9
:1052300001306FD14FF0FF3004B0BDE8F08723F0AC
:1052400004032360CDE721683368080653F8045B44
:1052500002D4490648BFADB26F2F4048336014BF37
:105260000A230823002184F843106668A660002EF4
:10527000BADB216821F004012160002DB4D1002E99
:10528000B2D11646BCE7236843F0200323603448BC
:10529000782784F84570236831681F0651F8045B4D
:1052A00002D45F0648BFADB23160D90744BF43F0B6
:1052B000200323601DB11023D4E72848E9E72368C1
:1052C00023F020032360F6E724480A23CDE7336860
:1052D00025686169181D30602E061B6801D51960AC
:1052E00002E06806FBD5198000232361164697E784
:1052F00033681A1D32601E6862680021304600F073
:105300004FF808B1801B606063682361002384F854
:10531000433085E72369324649464046D04701304D
:1053200088D023689B0714D4E068039B9842B8BFD9
:10533000184681E70123324649464046D0470130AE
:105340003FF478AF0135E36803995B1AAB42F1DCB7
:10535000EAE7002504F11906F5E700BF4558000803
:1053600056580008884210B501EB020402D9844265
:10537000234607D8431EA14208D011F8012B03F899
:10538000012FF8E7024401468A4200D110BD13F80C
:10539000014D02F8014DF7E7000000000000000099
:1053A00001F0FF01102A2BDB10F0070F08D010F8D6
:1053B000013B013A8B422DD010F0070F42B3F6D1DA
:1053C000F0B441EA012141EA014122F007047FF0F3
:1053D00000070023F0E80256083C85EA010586EA4A
:1053E000010685FA47F5A3FA87F586FA47F6A5FA86
:1053F00087F68EB9EED1F0BC01F0FF0102F0070292
:1054000032B110F8013B013A83EA010313B1F8D13C
:105410000020704701387047002D06BF354603381D
:10542000073815F0010F07D1013015F4807F02BF56
:10543000013015F4C03F0130F0BC0138704700BFA7
:105440000A44914200F1FF3300D1704710B511F8C2
:10545000014B03F8014F9142F9D110BD38B5054613
:10546000002941D051F8043C0C1F002BB8BFE418B0
:1054700000F0E0F81D4A136833B9636014602846F1
:10548000BDE8384000F0DCB8A34208D920682118F4
:105490008B4201BF19685B6809182160EDE71A4665
:1054A0005B680BB1A342FAD911685018A0420BD126
:1054B00020680144501883421160E0D118685B688D
:1054C000536008441060DAE702D90C232B60D6E75A
:1054D000206821188B4204BF19685B68636004BFB1
:1054E000091821605460CAE738BD00BF440100209C
:1054F00070B50F4E0C463168054611B900F0D4F86E
:1055000030602146284600F0CFF8431C03D14FF00D
:10551000FF34204670BDC41C24F00304A042F8D020
:10552000211A284600F0C0F80130F2D1EFE700BFA1
:10553000400100202DE9F843CD1C25F00305083576
:105540000C2D38BF0C25002D064601DBA94204D9DD
:105550000C2333600020BDE8F883DFF8D48000F02E
:1055600069F8D8F800301C4644BB29463046FFF79E
:10557000BFFF431C044658D1D8F800402746002FEF
:1055800043D1002C4BD023683946304604EB030945
:1055900000F08AF8814542D121686D1A29463046CB
:1055A000FFF7A6FF01303AD023682B442360D8F8D8
:1055B00000305A6862BBC8F800700FE02268521BC6
:1055C00020D40B2A17D96119A342256018BF59604E
:1055D000636808BFC8F8001062514B60304600F0A5
:1055E0002FF804F10B00231D20F00700C21A1CBF86
:1055F0001B1AA350AFE76268A3420CBFC8F8002093
:105600005A60EBE723466468AEE73C467F68B6E73E
:105610001A465B68A342FBD100235360DEE70C23EC
:105620003360304600F00CF894E70560D6E700BF21
:1056300044010020014800F047B800BF48010020A5
:10564000014800F042B800BF480100202DE9F041B8
:10565000804615460C4621B9BDE8F0411146FFF7DA
:1056600069BF2AB9FFF7FAFE00242046BDE8F081A1
:1056700000F02CF88542064602D8B5EB500FF4D85E
:1056800029464046FFF756FF07460028ECD0B542B2
:105690002A46214628BF3246FFF7D2FE2146404621
:1056A000FFF7DCFE3C46E0E738B5064D0023044634
:1056B00008462B60FEF7B6FE431C02D12B6803B1EF
:1056C000236038BD740000207047704751F8043CD7
:1056D000181F002BBCBF0B58C01870475374616370
:1056E0006B206672616D653A0A000000205230201E
:1056F0003D2020253038580A00000000205231207B
:105700003D2020253038580A000000002052322069
:105710003D2020253038580A000000002052332058
:105720003D2020253038580A000000002052313238
:10573000203D20253038580A00000000204C52201F
:105740003D2020253038580A00000000205043201A
:105750003D2020253038580A0000000020505352C8
:10576000203D20253038580A000000004653522FB3
:105770004641523A0A0000002043465352203D2041
:1057800020253038580A00002048465352203D203A
:1057900020253038580A00002044465352203D202E
:1057A00020253038580A00002041465352203D2021
:1057B00020253038580A0000204D4D464152203DEA
:1057C00020253038580A00002042464152203D2012
:1057D00020253038580A00004D6973630A00000024
:1057E000204C522F4558435F52455455524E3D2050
:1057F000253038580A0000005B48617264466175C4
:105800006C745D0A000000005B4275734661756C44
:10581000745D0A005B55736167654661756C745D04
:105820000A00000000000000000000000102030464
:1058300006070809232D302B2000686C4C00656694
:1058400067454647003031323334353637383941D1
:1058500042434445460030313233343536373839E7
:1058600061626364656600001000000000000000D3
:10587000017A5200027C0E011B0C0D00100000008A
:1058800018000000000000001000000000000000F0
:105890001000000000000000017A5200027C0E019E
:1058A0001B0C0D003800000018000000F4FAFFFF88
:1058B0009E00000000510E108404850386028701BB
:1058C0005BC7C6C5C40E004C0A420B0A420B0E1041
:1058D000840485038602870151C7C6C5C40E000033
:0858E000C0FAFF7F0100000087
:1058E8007856341270000020000000000024F400F4
:1058F80001FFFFFF1800002000000000000000006A
:1059080068000000D0000000000000000000000057
:10591800000000000000000000000000000000007F
:10592800000000000000000000000000000000006F
:10593800000000000000000000000000000000005F
:085948000000000032547698C3
:040000050800419519
:00000001FF
