:020000040800F2
:100000000000012051360008A1360008A136000882
:10001000A1360008A1360008A13600080000000043
:10002000000000000000000000000000D14E0008A9
:10003000A136000800000000215100088951000885
:1000400000000000A1360008A1360008A136000813
:10005000A1360008A1360008410E00086D0E000808
:10006000A1360008A1360008A1360008A136000814
:10007000A1360008A1360008A1360008A136000804
:10008000A1360008A1360008ED0D000800000000B0
:10009000000000000000000000000000A136000881
:1000A000A1360008A1360008A1360008A1360008D4
:1000B000152E0008312E00084D2E0008A13600082C
:1000C000A1360008A1360008A13600085516000820
:1000D000F1160008E52F00080130000800000000BC
:1000E000A1360008A1360008A13600080000000073
:1000F000000000000000000000000000A136000821
:1001000000000000A1360008692E0008A136000892
:1001100000000000000000000000000000000000DF
:10012000A1360008A1360008A1360008A136000853
:10013000A1360008000000000000000000000000E0
:10014000000000000000000000000000A1360008D0
:10015000A1360008A1360008A13600080F300008BB
:10016000A1360008A13600080000000000000000D1
:10017000000000000000000000000000000000007F
:10018000000000000000000000000000000000006F
:04019000A13600088C
:1001A00010B5054C237833B9044B13B10448AFF3B1
:1001B00000800123237010BD080000200000000013
:1001C0008C56000808B5034B1BB103490348AFF335
:1001D000008008BD000000000C0000208C560008C4
:1001E00081F0004102E000BF83F0004330B54FEAE8
:1001F00041044FEA430594EA050F08BF90EA020F55
:100200001FBF54EA000C55EA020C7FEA645C7FEAE7
:10021000655C00F0E2804FEA5454D4EB5555B8BF0A
:100220006D420CDD2C4480EA020281EA030382EA7B
:10023000000083EA010180EA020281EA0303362D0D
:1002400088BF30BD11F0004F4FEA01314FF4801CE0
:100250004CEA113102D0404261EB410113F0004FF2
:100260004FEA03334CEA133302D0524263EB4303A9
:1002700094EA050F00F0A780A4F10104D5F1200E47
:100280000DDB02FA0EFC22FA05F2801841F10001A2
:1002900003FA0EF2801843FA05F359410EE0A5F176
:1002A00020050EF1200E012A03FA0EFC28BF4CF0A7
:1002B000020C43FA05F3C01851EBE37101F000455D
:1002C00007D54FF0000EDCF1000C7EEB00006EEB6A
:1002D0000101B1F5801F1BD3B1F5001F0CD34908F4
:1002E0005FEA30004FEA3C0C04F101044FEA44524B
:1002F00012F5800F80F09A80BCF1004F08BF5FEAD2
:10030000500C50F1000041EB045141EA050130BDB1
:100310005FEA4C0C404141EB0101013C28BFB1F5C3
:10032000801FE9D291F0000F04BF01460020B1FA0E
:1003300081F308BF2033A3F10B03B3F120020CDAE1
:100340000C3208DD02F1140CC2F10C0201FA0CF0BF
:1003500021FA02F10CE002F11402D8BFC2F1200C24
:1003600001FA02F120FA0CFCDCBF41EA0C019040DA
:10037000E41AA2BF01EB0451294330BD6FEA040423
:100380001F3C1CDA0C340EDC04F11404C4F120020E
:1003900020FA04F001FA02F340EA030021FA04F320
:1003A00045EA030130BDC4F10C04C4F1200220FA77
:1003B00002F001FA04F340EA0300294630BD21FAB5
:1003C00004F0294630BD94F0000F83F4801306BF7B
:1003D00081F480110134013D4EE77FEA645C18BF6F
:1003E0007FEA655C29D094EA050F08BF90EA020F06
:1003F00005D054EA000C04BF1946104630BD91EAFE
:10040000030F1EBF0021002030BD5FEA545C05D100
:100410004000494128BF41F0004130BD14F580043F
:100420003CBF01F5801130BD01F0004545F0FE41B3
:1004300041F470014FF0000030BD7FEA645C1ABFE8
:10044000194610467FEA655C1CBF0B46024650EA1F
:10045000013406BF52EA033591EA030F41F400214B
:1004600030BD00BF90F0000F04BF0021704730B5D1
:100470004FF4806404F132044FF000054FF00001A6
:1004800050E700BF90F0000F04BF0021704730B567
:100490004FF4806404F1320410F0004548BF40423C
:1004A0004FF000013EE700BF42004FEAE2014FEA91
:1004B00031014FEA02701FBF12F07F4393F07F4F6C
:1004C00081F06051704732F07F4208BF704793F06F
:1004D0007F4F04BF41F40021704730B54FF4607482
:1004E00001F0004521F000411CE700BF50EA010285
:1004F00008BF704730B54FF000050AE050EA01022E
:1005000008BF704730B511F0004502D5404261EB9D
:1005100041014FF4806404F132045FEA915C3FF4DE
:10052000D8AE4FF003025FEADC0C18BF03325FEA7B
:10053000DC0C18BF033202EBDC02C2F1200300FA2C
:1005400003FC20FA02F001FA03FE40EA0E0021FA51
:1005500002F11444BDE600BF70B54FF0FF0C4CF43F
:10056000E06C1CEA11541DBF1CEA135594EA0C0FF1
:1005700095EA0C0F00F0DEF82C4481EA030621EA2C
:100580004C5123EA4C5350EA013518BF52EA033567
:1005900041F4801143F4801338D0A0FB02CE4FF019
:1005A0000005E1FB02E506F00042E0FB03E54FF049
:1005B0000006E1FB03569CF0000F18BF4EF0010E41
:1005C000A4F1FF04B6F5007F64F5407404D25FEA3D
:1005D0004E0E6D4146EB060642EAC62141EA5551F0
:1005E0004FEAC52040EA5E504FEACE2EB4F1FD0C32
:1005F00088BFBCF5E06F1ED8BEF1004F08BF5FEAB0
:10060000500E50F1000041EB045170BD06F0004661
:1006100046EA010140EA020081EA0301B4EB5C040E
:10062000C2BFD4EB0C0541EA045170BD41F4801106
:100630004FF0000E013C00F3AB8014F1360FDEBF2B
:10064000002001F0004170BDC4F10004203C35DA07
:100650000C341BDC04F11404C4F1200500FA05F38A
:1006600020FA04F001FA05F240EA020001F000422B
:1006700021F0004110EBD37021FA04F642EB0601A1
:100680005EEA430E08BF20EAD37070BDC4F10C04CB
:10069000C4F1200500FA04F320FA05F001FA04F28F
:1006A00040EA020001F0004110EBD37041F100017B
:1006B0005EEA430E08BF20EAD37070BDC4F1200586
:1006C00000FA05F24EEA020E20FA04F301FA05F2EE
:1006D00043EA020321FA04F001F0004121FA04F296
:1006E00020EA020000EBD3705EEA430E08BF20EA66
:1006F000D37070BD94F0000F0FD101F000464000A0
:1007000041EB010111F4801F08BF013CF7D041EA21
:10071000060195F0000F18BF704703F00046520025
:1007200043EB030313F4801F08BF013DF7D043EAF6
:100730000603704794EA0C0F0CEA135518BF95EAAC
:100740000C0F0CD050EA410618BF52EA4306D1D133
:1007500081EA030101F000414FF0000070BD50EA52
:10076000410606BF1046194652EA430619D094EADC
:100770000C0F02D150EA013613D195EA0C0F05D1C6
:1007800052EA03361CBF104619460AD181EA03011A
:1007900001F0004141F0FE4141F470014FF00000D2
:1007A00070BD41F0FE4141F4780170BD70B54FF06D
:1007B000FF0C4CF4E06C1CEA11541DBF1CEA1355ED
:1007C00094EA0C0F95EA0C0F00F0A7F8A4EB0504CF
:1007D00081EA030E52EA03354FEA013100F08880C6
:1007E0004FEA03334FF0805545EA131343EA12638F
:1007F0004FEA022245EA111545EA10654FEA002644
:100800000EF000419D4208BF964244F1FD0404F5FC
:10081000407402D25B084FEA3202B61A65EB030558
:100820005B084FEA32024FF480104FF4002CB6EB15
:10083000020E75EB030E22BFB61A754640EA0C0095
:100840005B084FEA3202B6EB020E75EB030E22BFD5
:10085000B61A754640EA5C005B084FEA3202B6EB16
:10086000020E75EB030E22BFB61A754640EA9C00D5
:100870005B084FEA3202B6EB020E75EB030E22BFA5
:10088000B61A754640EADC0055EA060E18D04FEA63
:10089000051545EA16754FEA06164FEAC30343EA03
:1008A00052734FEAC2025FEA1C1CC0D111F4801FD0
:1008B0000BD141EA00014FF000004FF0004CB6E7C9
:1008C00011F4801F04BF01430020B4F1FD0C88BF68
:1008D000BCF5E06F3FF6AFAEB5EB030C04BFB6EB73
:1008E000020C5FEA500C50F1000041EB045170BD66
:1008F0000EF0004E4EEA113114EB5C04C2BFD4EB93
:100900000C0541EA045170BD41F480114FF0000E16
:10091000013C90E645EA060E8DE60CEA135594EA92
:100920000C0F08BF95EA0C0F3FF43BAF94EA0C0F95
:100930000AD150EA01347FF434AF95EA0C0F7FF40A
:1009400025AF104619462CE795EA0C0F06D152EA5E
:1009500003353FF4FDAE1046194622E750EA410642
:1009600018BF52EA43067FF4C5AE50EA41047FF453
:100970000DAF52EA43057FF4EBAE12E74FEA4102B6
:10098000B2F1E04324BFB3F5001CDCF1FE5C0DD9ED
:1009900001F0004C4FEAC0024CEA5070B2F1004F37
:1009A00040EB830008BF20F00100704711F0804F3A
:1009B00021D113F13872BCBF01F00040704741F4FF
:1009C00080114FEA5252C2F11802C2F1200C10FA03
:1009D0000CF320FA02F018BF40F001004FEAC123E7
:1009E0004FEAD32303FA0CFC40EA0C0023FA02F38B
:1009F0004FEA4303CCE77FEA625307D150EA013361
:100A00001EBF4FF0FE4040F44000704701F0004030
:100A100040F0FE4040F40000704700BF00000000BE
:100A200080B582B000AF4FF000037B60012000F082
:100A3000E7F900F0C7F907EE900AF8EE677AC7ED1C
:100A4000017A7868FFF730FD17A3D3E90023FFF799
:100A500083FD02460B46104619464FF00002104B2C
:100A6000FFF7A4FE02460B4610461946FFF786FF25
:100A700003463B60B1EE047AD7ED007A77EE677AF1
:100A80009FED087A67EE876A97ED007AC6EE877A5F
:100A9000FCEEE77A17EE903A18460837BD4680BD5F
:100AA000000070400050C3476666666666660A408E
:100AB00080B582B000AF4FF000037B604FF00003C1
:100AC0003B60002000F09CF900F07CF907EE900AF2
:100AD000F8EE677AC7ED017A7868FFF7E5FC18A3AE
:100AE000D3E90023FFF738FD02460B4610461946AE
:100AF0004FF00002104BFFF759FE02460B4610461E
:100B00001946FFF73BFF03463B60B1EE047AD7ED91
:100B1000007A77EE677A9FED097A67EE876A97ED3C
:100B2000007AC6EE877AFCEEE77A17EE903A18461E
:100B30000837BD4680BD00BF0000704000401C4625
:100B40006666666666660A4080B582B002AF0122BC
:100B50000621012000F0A0F901220121012000F06E
:100B60009BF901220221012000F096F901220521C2
:100B7000012000F091F9002300220621012000F05D
:100B80000DFA002300220121012000F007FA0023C2
:100B900000220221012000F001FA00230022052199
:100BA000012000F0FBF90F23009300234FF47A7229
:100BB0000121012002F0F4F80F23009300234FF4E9
:100BC0007A720221012002F0EBF800BFBD4680BD21
:100BD00080B500AF01220621012000F0ABFA00220F
:100BE0000121012000F0A6FA01220221012000F0DB
:100BF000A1FA00220521012000F09CFA00BF80BD6F
:100C000080B582B000AF0346FB80FB881A46012105
:100C1000012001F071FDFB881A460221012001F03C
:100C20006BFD00BF0837BD4680BD000080B485B0B5
:100C300000AF0023FB73574A07F1080392E8030053
:100C4000186004331980544A3B4692E80300186048
:100C500004331980514B5B68504A23F04073536052
:100C60004E4B5B684D4A43F0007353604B4B5B68DF
:100C70004A4A23F480735360484B9B68474A23F0E9
:100C800002039360454B9B68444A23F400639360DE
:100C9000424B9B68414A23F4806393603F4B9B68BF
:100CA0003E4A23F4807393603C4B9B683B4A23F499
:100CB00000739360394BDB6A384A23F47003D362C4
:100CC000364B364ADB6AD3620023FB7320E0334B9A
:100CD0001969FA7B13465B001344072202FA03F3F7
:100CE000DB432E4A0B4013612C4B1969FB7B1033FD
:100CF0003B4413F8083C1846FA7B13465B00134448
:100D000000FA03F3254A0B431361FB7B0133FB73AA
:100D1000FB7B002BDBD00023FB7320E01F4B596BC8
:100D2000FA7B13469B0013441F2202FA03F3DB43B2
:100D30001A4A0B405363194B596BFB7B10333B44EE
:100D400013F8103C1846FA7B13469B00134400FA34
:100D500003F3124A0B435363FB7B0133FB73FB7BAF
:100D6000002BDBD00D4B5B680C4A23F02003536053
:100D70000B4B5B680A4A23F440335360084B5B68B3
:100D8000074A43F48033536000BF1437BD465DF813
:100D9000047B7047A4560008AC56000800200140B0
:100DA0000023014080B400AF054B9B68044A43F028
:100DB0000103936000BFBD465DF8047B704700BF30
:100DC0000020014080B400AF00BF074B1B685B08E8
:100DD00003F00103002BF8D0034BDB6C1846BD4633
:100DE0005DF8047B704700BF0020014080B500AF74
:100DF000024B1B68984700BF80BD00BF2400002045
:100E000080B483B000AF0346FB710C4B5B6B0B4AA5
:100E100023F01F035363094B5A6BFB7907491343B4
:100E20004B63064B9B68054A43F08043936000BFC9
:100E30000C37BD465DF8047B704700BF00200140C1
:100E400080B500AF074B5B69064A43F0010353616D
:100E5000054B1B68002B02D0034B1B68984700BF53
:100E600080BD00BF003C01402800002080B500AFDD
:100E7000074B5B69064A43F002035361054B5B680D
:100E8000002B02D0034B5B68984700BF80BD00BFBA
:100E9000003C01402800002080B483B000AF03462E
:100EA000FB710B46BB7113467B71FB79002B08D19C
:100EB000BB790D2B60D0BB790E2B5DD0BB790F2B8E
:100EC0005AD0FB79012B05D1BB79032B56D0BB79C6
:100ED000042B53D0FB79022B36D0022B50DC002B95
:100EE00002D0012B18D04BE0294B1B68BA79520075
:100EF000032101FA02F2D2431146254A0B40136046
:100F0000234B1B687979BA79520001FA02F2114633
:100F10001F4A0B43136034E01E4B1B68BA79520022
:100F2000032101FA02F2D24311461A4A0B40136020
:100F3000184B1B687979BA79520001FA02F211460E
:100F4000144A0B4313601CE0134B1B68BA79520020
:100F5000032101FA02F2D24311460F4A0B401360FB
:100F60000D4B1B687979BA79520001FA02F21146E9
:100F7000094A0B43136004E000BF02E000BF00E039
:100F800000BF00BF0C37BD465DF8047B704700BF53
:100F900000000240000402400008024090B482B009
:100FA00000AF0446084611461A462346FB71034625
:100FB000BB710B467B7113463B71FB79002B0BD148
:100FC000BB790D2B00F0A580BB790E2B00F0A18022
:100FD000BB790F2B00F09D80FB79012B07D1BB79EA
:100FE000032B00F09880BB79042B00F09480FB79F0
:100FF000022B61D0022B00F39080002B02D0012B3A
:101000002DD08AE0484B9B68BA795200032101FA3F
:1010100002F2D2431146444A0B409360424B9B6814
:101020003979BA79520001FA02F211463E4A0B436D
:1010300093603D4B5B68BA79012101FA02F2D24319
:101040001146394A0B405360374B5B687979BA795E
:1010500001FA02F21146344A0B4353605EE0334B0F
:101060009B68BA795200032101FA02F2D243114679
:101070002E4A0B4093602D4B9B683979BA79520008
:1010800001FA02F21146294A0B439360274B5B6831
:10109000BA79012101FA02F2D2431146234A0B40E8
:1010A0005360224B5B687979BA7901FA02F21146F2
:1010B0001E4A0B43536031E01D4B9B68BA795200C6
:1010C000032101FA02F2D2431146194A0B40936000
:1010D000174B9B683979BA79520001FA02F211462E
:1010E000134A0B439360124B5B68BA79012101FAF2
:1010F00002F2D24311460E4A0B4053600C4B5B6820
:101100007979BA7901FA02F21146094A0B43536020
:1011100004E000BF02E000BF00E000BF00BF0837EE
:10112000BD4690BC704700BF000002400004024072
:101130000008024080B483B000AF0346FB710B4649
:10114000BB7113467B71FB79002B08D1BB790D2B4A
:101150006FD0BB790E2B6CD0BB790F2B69D0FB798C
:10116000012B05D1BB79032B65D0BB79042B62D051
:10117000FB79022B40D0022B5FDC002B02D0012B2D
:101180001DD05AE07B79002B0CD0012B57D1314B6D
:101190005B69BA79012101FA02F211462D4A0B432B
:1011A00053610BE02B4B5B69BA79012101FA02F222
:1011B000D2431146274A0B40536100BF3FE07B7981
:1011C000002B0CD0012B3CD1234B5B69BA79012158
:1011D00001FA02F21146204A0B4353610BE01E4B09
:1011E0005B69BA79012101FA02F2D24311461A4A27
:1011F0000B40536100BF24E07B79002B0CD0012B06
:1012000021D1164B5B69BA79012101FA02F211462C
:10121000124A0B4353610BE0104B5B69BA79012111
:1012200001FA02F2D24311460C4A0B40536100BF4F
:1012300009E000BF08E000BF06E000BF04E000BF17
:1012400002E000BF00E000BF00BF0C37BD465DF804
:10125000047B704700000240000402400008024086
:1012600080B483B000AF0346FB710B46BB711346DD
:101270007B71FB79002B08D1BB790D2B6FD0BB792B
:101280000E2B6CD0BB790F2B69D0FB79012B05D1CC
:10129000BB79032B65D0BB79042B62D0FB79022B81
:1012A00040D0022B5FDC002B02D0012B1DD05AE076
:1012B0007B79002B0CD0012B57D1314B9B69BA792C
:1012C000012101FA02F211462D4A0B4393610BE012
:1012D0002B4B9B69BA791032012101FA02F21146B7
:1012E000274A0B43936100BF3FE07B79002B0CD072
:1012F000012B3CD1234B9B69BA79012101FA02F2FF
:101300001146204A0B4393610BE01E4B9B69BA794F
:101310001032012101FA02F211461A4A0B4393617D
:1013200000BF24E07B79002B0CD0012B21D1164B80
:101330009B69BA79012101FA02F21146124A0B4364
:1013400093610BE0104B9B69BA791032012101FACD
:1013500002F211460C4A0B43936100BF09E000BF43
:1013600008E000BF06E000BF04E000BF02E000BFED
:1013700000E000BF00BF0C37BD465DF8047B70473E
:1013800000000240000402400008024080B483B024
:1013900000AF0346FB710B46BB7113467B71FB79B3
:1013A000002B0BD1BB790D2B00F0BD80BB790E2B30
:1013B00000F0B980BB790F2B00F0B580FB79012BD1
:1013C00007D1BB79032B00F0B080BB79042B00F070
:1013D000AC80FB79022B71D0022B00F3A880002B8C
:1013E00002D0012B35D0A2E0BB79072B17D8534B85
:1013F0001B6ABA7992000F2101FA02F2D243114618
:101400004E4A0B4013624D4B1B6A7979BA799200B0
:1014100001FA02F21146494A0B43136288E0474B36
:101420005B6ABA79083A92000F2101FA02F2D243BC
:101430001146424A0B405362404B5B6A7979BA7954
:10144000083A920001FA02F211463C4A0B435362F9
:101450006EE0BB79072B17D8394B1B6ABA7992001B
:101460000F2101FA02F2D2431146354A0B401362B2
:10147000334B1B6A7979BA79920001FA02F211466C
:101480002F4A0B43136253E02D4B5B6ABA79083A3B
:1014900092000F2101FA02F2D2431146284A0B4072
:1014A0005362274B5B6A7979BA79083A920001FA5C
:1014B00002F21146224A0B43536239E0BB79072BF3
:1014C00017D8204B1B6ABA7992000F2101FA02F259
:1014D000D24311461B4A0B4013621A4B1B6A79799F
:1014E000BA79920001FA02F21146164A0B431362CE
:1014F0001EE0134B5B6ABA79083A92000F2101FA99
:1015000002F2D24311460E4A0B4053620C4B5B6A07
:101510007979BA79083A920001FA02F21146084A3A
:101520000B43536204E000BF02E000BF00E000BFD5
:1015300000BF0C37BD465DF8047B704700000240D9
:10154000000402400008024080B400AF1A4B1B6840
:10155000194A23F080031360174B1B68164A43F0A7
:1015600080031360144B1B68134A23F48033136009
:10157000114B1B68104A23F0807313600E4B1B68DD
:101580000D4A43F00103136000BF0B4B1B685B085F
:1015900003F00103002BF8D0074B9B68064A23F0A9
:1015A00003039360044B044A9B68936000BFBD46ED
:1015B0005DF8047B704700BF0038024080B483B000
:1015C00000AF786039603B681F2B3AD87B68032BEB
:1015D00036D801A252F823F0E9150008FF150008DB
:1015E000151600082B160008194B1B6C01213A68D0
:1015F00001FA02F21146164A0B43136421E0144B20
:101600005B6C01213A6801FA02F21146104A0B4361
:10161000536416E00E4B1B6B01213A6801FA02F28B
:1016200011460B4A0B4313630BE0094B5B6B012123
:101630003A6801FA02F21146054A0B43536300E08F
:1016400000BF00BF0C37BD465DF8047B704700BF8C
:101650000038024080B500AF044B1B68002B02D05D
:10166000024B1B68984700BF80BD00BF6800002088
:1016700080B400AF1D4B1B681C4A23F40063136049
:101680001A4B1B68194A23F400731360174B1B682D
:10169000164A23F080031360144B1B68134A23F08F
:1016A00003031360114B1B68104A43F003031360DC
:1016B0000E4B5B680D4A23F0800353600B4B5B6855
:1016C0000A4A43F040035360084B1B68074A23F063
:1016D00004031360054B1B68044A43F04003136086
:1016E00000BFBD465DF8047B704700BF0038004076
:1016F00080B500AF044B5B68002B02D0024B5B68E7
:10170000984700BF80BD00BF6800002080B483B050
:1017100000AF0346FB71FB79032B29D801A252F8D5
:1017200023F000BF351700084717000855170008B9
:10173000631700084FF080431B684FF0804243F06E
:101740000103136014E00D4B1B680C4A43F00103C6
:1017500013600DE00A4B1B68094A43F00103136054
:1017600006E0084B1B68074A43F00103136000BF03
:1017700000BF0C37BD465DF8047B70470004004095
:1017800000080040000C004080B483B000AF034666
:101790000A46FB711346BB71FB79032B38D801A2B3
:1017A00052F823F0B5170008CF170008E517000816
:1017B000FB1700084FF08043DB68BA79012101FA7A
:1017C00002F211464FF080420B43D36020E0134BEE
:1017D000DB68BA79012101FA02F211460F4A0B4384
:1017E000D36015E00E4BDB68BA79012101FA02F2F1
:1017F00011460B4A0B43D3600AE00A4BDB68BA7907
:10180000012101FA02F21146064A0B43D36000BFE0
:1018100000BF0C37BD465DF8047B704700040040F4
:1018200000080040000C004080B483B000AF0346C5
:101830000A46FB711346BB80FB79032B1BD801A220
:1018400052F823F0551800085F18000867180008C0
:101850006F1800084FF08042BB8893620BE0094A82
:10186000BB88936207E0084ABB88936203E0074A9B
:10187000BB88936200BF00BF0C37BD465DF8047B98
:10188000704700BF0004004000080040000C00400A
:1018900080B483B000AF03460A46FB711346BB71A8
:1018A000FB79032B62D801A252F823F0BD1800087F
:1018B000EF1800081919000843190008BB79002B1C
:1018C00002D0012B09D051E04FF080431B684FF04C
:1018D000804223F01003136008E04FF080431B6840
:1018E0004FF0804243F01003136000BF3EE0BB792D
:1018F000002B02D0012B07D038E01F4B1B681E4A7B
:1019000023F01003136006E01B4B1B681A4A43F0D8
:101910001003136000BF29E0BB79002B02D0012B1C
:1019200007D023E0154B1B68144A23F01003136003
:1019300006E0124B1B68114A43F01003136000BF0E
:1019400014E0BB79002B02D0012B07D00DE00C4B2B
:101950001B680B4A23F01003136006E0084B1B685A
:10196000074A43F01003136000BF00BF00BF0C37ED
:10197000BD465DF8047B704700040040000800404D
:10198000000C004080B483B000AF0346FB710B46EF
:10199000BB7113467B71FB79032B00F2478101A2D7
:1019A00052F823F0B5190008671A0008FB1A00085E
:1019B0008F1B0008BB79013B032B00F2308101A291
:1019C00052F823F0D5190008F71900081D1A00086D
:1019D0003F1A00084FF080439B694FF0804223F08C
:1019E000030393614FF080439A697B794FF0804104
:1019F00013438B6136E04FF080439B694FF0804288
:101A000023F4407393614FF080439B697A7912020B
:101A100011464FF080420B43936123E04FF0804327
:101A2000DB694FF0804223F00303D3614FF0804322
:101A3000DA697B794FF080411343CB6112E04FF0BC
:101A40008043DB694FF0804223F44073D3614FF051
:101A50008043DB697A79120211464FF080420B43D2
:101A6000D36100BFDBE0BB79013B032B00F2D980DF
:101A700001A252F823F000BF891A0008A31A000837
:101A8000C11A0008DB1A00086B4B9B696A4A23F0F5
:101A900003039361684B9A697B79674913438B61B0
:101AA0002AE0654B9B69644A23F440739361624B5F
:101AB0009B697A79120211465F4A0B4393611BE0DE
:101AC0005D4BDB695C4A23F00303D3615A4BDA694F
:101AD0007B7959491343CB610EE0574BDB69564A7A
:101AE00023F44073D361544BDB697A7912021146B7
:101AF000514A0B43D36100BF93E0BB79013B032BF9
:101B000000F2918001A252F823F000BF1D1B0008D3
:101B1000371B0008551B00086F1B0008474B9B69CB
:101B2000464A23F003039361444B9A697B79434906
:101B300013438B612AE0414B9B69404A23F4407375
:101B400093613E4B9B697A79120211463B4A0B43E3
:101B500093611BE0394BDB69384A23F00303D361FF
:101B6000364BDA697B7935491343CB610EE0334B51
:101B7000DB69324A23F44073D361304BDB697A79F5
:101B8000120211462D4A0B43D36100BF4BE0BB79D3
:101B9000013B032B49D801A252F823F0AD1B0008EA
:101BA000C71B0008E51B0008FF1B0008244B9B69AE
:101BB000234A23F003039361214B9A697B792049DF
:101BC00013438B612AE01E4B9B691D4A23F440732B
:101BD00093611B4B9B697A7912021146184A0B4399
:101BE00093611BE0164BDB69154A23F00303D361B5
:101BF000134BDA697B7912491343CB610EE0104B2A
:101C0000DB690F4A23F44073D3610D4BDB697A79AA
:101C1000120211460A4A0B43D36100BF05E000BF20
:101C200004E000BF02E000BF00E000BF00BF0C37CF
:101C3000BD465DF8047B704700040040000800408A
:101C4000000C004080B483B000AF0346FB710B462C
:101C5000BB7113467B71FB79032B00F2198401A23F
:101C600052F823F0751C0008C71E0008AB200008BE
:101C700097220008BB79013B032B00F2028401A2EA
:101C800052F823F0951C0008211D0008AD1D000826
:101C9000391E00087B79032B28D0032B37DC002B5F
:101CA00002D0012B11D032E04FF080431B6A4FF07D
:101CB000804223F0020313624FF080431B6A4FF00F
:101CC000804223F00803136221E04FF080431B6A37
:101CD0004FF0804243F0020313624FF080431B6ACF
:101CE0004FF0804223F00803136210E04FF080436E
:101CF0001B6A4FF0804243F0020313624FF08043AF
:101D00001B6A4FF0804243F00803136200BF4FF09C
:101D100080431B6A4FF0804243F001031362D1E01D
:101D20007B79032B28D0032B37DC002B02D0012B2F
:101D300011D032E04FF080431B6A4FF0804223F015
:101D4000200313624FF080431B6A4FF0804223F060
:101D50008003136221E04FF080431B6A4FF0804202
:101D600043F0200313624FF080431B6A4FF0804220
:101D700023F08003136210E04FF080431B6A4FF0A2
:101D8000804243F0200313624FF080431B6A4FF000
:101D9000804243F08003136200BF4FF080431B6A10
:101DA0004FF0804243F0100313628BE07B79032BEA
:101DB00028D0032B37DC002B02D0012B11D032E0CE
:101DC0004FF080431B6A4FF0804223F4007313628C
:101DD0004FF080431B6A4FF0804223F4006313628C
:101DE00021E04FF080431B6A4FF0804243F40073C0
:101DF00013624FF080431B6A4FF0804223F400636C
:101E0000136210E04FF080431B6A4FF0804243F4AE
:101E1000007313624FF080431B6A4FF0804243F41B
:101E20000063136200BF4FF080431B6A4FF0804293
:101E300043F48073136245E07B79032B28D0032B96
:101E400037DC002B02D0012B11D032E04FF0804361
:101E50001B6A4FF0804223F4005313624FF080431B
:101E60001B6A4FF0804223F40043136221E04FF0DD
:101E700080431B6A4FF0804243F4005313624FF0DB
:101E800080431B6A4FF0804223F40043136210E04A
:101E90004FF080431B6A4FF0804243F400531362BB
:101EA0004FF080431B6A4FF0804243F400431362BB
:101EB00000BF4FF080431B6A4FF0804243F48053D1
:101EC000136200BFDDE2BB79013B032B00F2DB8232
:101ED00001A252F823F000BFE91E0008591F0008B4
:101EE000C91F0008392000087B79032B20D0032B61
:101EF0002BDC002B02D0012B0DD026E0944B1B6A6B
:101F0000934A23F002031362914B1B6A904A23F019
:101F10000803136219E08E4B1B6A8D4A43F00203DB
:101F200013628B4B1B6A8A4A23F0080313620CE08E
:101F3000874B1B6A864A43F002031362844B1B6A79
:101F4000834A43F00803136200BF814B1B6A804A37
:101F500043F001031362A7E07B79032B20D0032B0E
:101F60002BDC002B02D0012B0DD026E0784B1B6A16
:101F7000774A23F020031362754B1B6A744A23F0DF
:101F80008003136219E0724B1B6A714A43F020030D
:101F900013626F4B1B6A6E4A23F0800313620CE0DE
:101FA0006B4B1B6A6A4A43F020031362684B1B6A3F
:101FB000674A43F08003136200BF654B1B6A644AA3
:101FC00043F0100313626FE07B79032B20D0032BC7
:101FD0002BDC002B02D0012B0DD026E05C4B1B6AC2
:101FE0005B4A23F400731362594B1B6A584A23F46B
:101FF0000063136219E0564B1B6A554A43F40073A1
:102000001362534B1B6A524A23F4006313620CE0C1
:102010004F4B1B6A4E4A43F4007313624C4B1B6ACE
:102020004B4A43F40063136200BF494B1B6A484AA2
:1020300043F48073136237E07B79032B20D0032BAA
:102040002BDC002B02D0012B0DD026E0404B1B6A6D
:102050003F4A23F4005313623D4B1B6A3C4A23F46E
:102060000043136219E03A4B1B6A394A43F40053A8
:102070001362374B1B6A364A23F4004313620CE0A9
:10208000334B1B6A324A43F400531362304B1B6AD2
:102090002F4A43F40043136200BF2D4B1B6A2C4AA6
:1020A00043F48053136200BFEDE1BB79013B032B86
:1020B00000F2EB8101A252F823F000BFCD2000080E
:1020C0003D210008B5210008252200087B79032B5B
:1020D00020D0032B2BDC002B02D0012B0DD026E0CF
:1020E0001C4B1B6A1B4A23F002031362194B1B6A29
:1020F000184A23F00803136219E0164B1B6A154AAD
:1021000043F002031362134B1B6A124A23F00803C5
:1021100013620CE00F4B1B6A0E4A43F0020313627A
:102120000C4B1B6A0B4A43F00803136200BF094BB8
:102130001B6A084A43F001031362ABE07B79032B6F
:1021400024D0032B2FDC002B06D0012B11D02AE04A
:102150000004004000080040944B1B6A934A23F09F
:1021600020031362914B1B6A904A23F08003136291
:1021700019E08E4B1B6A8D4A43F0200313628B4B90
:102180001B6A8A4A23F0800313620CE0874B1B6AA8
:10219000864A43F020031362844B1B6A834A43F050
:1021A0008003136200BF814B1B6A804A43F0100317
:1021B00013626FE07B79032B20D0032B2BDC002BE9
:1021C00002D0012B0DD026E0784B1B6A774A23F40E
:1021D00000731362754B1B6A744A23F40063136225
:1021E00019E0724B1B6A714A43F4007313626F4B20
:1021F0001B6A6E4A23F4006313620CE06B4B1B6A8C
:102200006A4A43F400731362684B1B6A674A43F4DB
:102210000063136200BF654B1B6A644A43F480731A
:10222000136237E07B79032B20D0032B2BDC002BB0
:1022300002D0012B0DD026E05C4B1B6A5B4A23F4D5
:1022400000531362594B1B6A584A23F4004313622C
:1022500019E0564B1B6A554A43F400531362534B23
:102260001B6A524A23F4004313620CE04F4B1B6A73
:102270004E4A43F4005313624C4B1B6A4B4A43F4DF
:102280000043136200BF494B1B6A484A43F4805322
:10229000136200BFF9E0BB79013B032B00F2F7802A
:1022A00001A252F823F000BFB92200082923000838
:1022B00099230008112400087B79032B20D0032BDD
:1022C0002BDC002B02D0012B0DD026E0384B1B6AF3
:1022D000374A23F002031362354B1B6A344A23F05A
:1022E0000803136219E0324B1B6A314A43F00203C0
:1022F00013622F4B1B6A2E4A23F0080313620CE073
:102300002B4B1B6A2A4A43F002031362284B1B6AB9
:10231000274A43F00803136200BF254B1B6A244A77
:1023200043F001031362ABE07B79032B20D0032B36
:102330002BDC002B02D0012B0DD026E01C4B1B6A9E
:102340001B4A23F020031362194B1B6A184A23F01F
:102350008003136219E0164B1B6A154A43F02003F1
:102360001362134B1B6A124A23F0800313620CE0C2
:102370000F4B1B6A0E4A43F0200313620C4B1B6A7F
:102380000B4A43F08003136200BF094B1B6A084AE3
:1023900043F01003136273E07B79032B24D0032BEB
:1023A0002FDC002B06D0012B11D02AE000080040C2
:1023B000000C0040394B1B6A384A23F40073136247
:1023C000364B1B6A354A23F40063136219E0334B22
:1023D0001B6A324A43F400731362304B1B6A2F4A64
:1023E00023F4006313620CE02C4B1B6A2B4A43F46A
:1023F00000731362294B1B6A284A43F4006313627B
:1024000000BF264B1B6A254A43F48073136237E0F2
:102410007B79032B20D0032B2BDC002B02D0012B4C
:102420000DD026E01D4B1B6A1C4A23F40053136297
:102430001A4B1B6A194A23F40043136219E0174B25
:102440001B6A164A43F400531362144B1B6A134A67
:1024500023F4004313620CE0104B1B6A0F4A43F451
:10246000005313620D4B1B6A0C4A43F40043136282
:1024700000BF0A4B1B6A094A43F48053136200BF32
:1024800005E000BF04E000BF02E000BF00E000BFC5
:1024900000BF0C37BD465DF8047B7047000C004060
:1024A00080B485B000AF03460A46FB711346BB718A
:1024B0000023FB60FB79032B00F2988001A252F805
:1024C00023F000BFD52400081F2500085F25000861
:1024D0009F250008BB79013B032B00F2808001A2FD
:1024E00052F823F0F5240008FF240008092500080D
:1024F000132500084FF080435B6BFB600EE04FF04C
:1025000080439B6BFB6009E04FF08043DB6BFB601B
:1025100004E04FF080431B6CFB6000BF5FE0BB79C1
:10252000013B032B5DD801A252F823F03D250008A2
:10253000452500084D250008552500082F4B5B6BED
:10254000FB600BE02D4B9B6BFB6007E02B4BDB6BC9
:10255000FB6003E0294B1B6CFB6000BF41E0BB79D3
:10256000013B032B3FD801A252F823F07D25000840
:10257000852500088D25000895250008204B5B6BFC
:10258000FB600BE01E4B9B6BFB6007E01C4BDB6BA7
:10259000FB6003E01A4B1B6CFB6000BF23E0BB79C0
:1025A000013B032B21D801A252F823F0BD250008DE
:1025B000C5250008CD250008D5250008114B5B6B0B
:1025C000FB600BE00F4B9B6BFB6007E00D4BDB6B85
:1025D000FB6003E00B4B1B6CFB6000BF05E000BF22
:1025E00004E000BF02E000BF00E000BFFB68184647
:1025F0001437BD465DF8047B704700BF00040040FF
:1026000000080040000C004080B483B000AF0346D7
:102610003960FB71FB7905493A6841F8232000BF16
:102620000C37BD465DF8047B704700BF7800002082
:1026300080B483B000AF03463960FB71FB79032B94
:102640001BD801A252F823F059260008632600087F
:102650006B260008732600084FF080423B685362E7
:102660000BE0094A3B68536207E0084A3B68536243
:1026700003E0074A3B68536200BF00BF0C37BD460A
:102680005DF8047B704700BF000400400008004074
:10269000000C004080B483B000AF03463960FB718A
:1026A000FB79032B1BD801A252F823F0BD260008AA
:1026B000C7260008CF260008D72600084FF0804222
:1026C0003B68D3620BE0094A3B68D36207E0084AE3
:1026D0003B68D36203E0074A3B68D36200BF00BF98
:1026E0000C37BD465DF8047B704700BF0004004016
:1026F00000080040000C004080B483B000AF0346E7
:102700003A60FB710B46BB71FB79032B00F298809A
:1027100001A252F823F000BF292700087327000800
:10272000B3270008F3270008BB79013B032B00F215
:10273000808001A252F823F049270008532700089F
:102740005D270008672700084FF080423B6853630D
:102750000EE04FF080423B68936309E04FF0804207
:102760003B68D36304E04FF080423B68136400BFD2
:102770005FE0BB79013B032B5DD801A252F823F047
:102780009127000899270008A1270008A927000819
:102790002E4A3B6853630BE02C4A3B68936307E087
:1027A0002A4A3B68D36303E0284A3B68136400BFAE
:1027B00041E0BB79013B032B3FD801A252F823F043
:1027C000D1270008D9270008E1270008E9270008D9
:1027D0001F4A3B6853630BE01D4A3B68936307E065
:1027E0001B4A3B68D36303E0194A3B68136400BF8C
:1027F00023E0BB79013B032B21D801A252F823F03F
:102800001128000819280008212800082928000894
:10281000104A3B6853630BE00E4A3B68936307E042
:102820000C4A3B68D36303E00A4A3B68136400BF69
:1028300005E000BF04E000BF02E000BF00E000BF11
:1028400000BF0C37BD465DF8047B704700040040B4
:1028500000080040000C004080B485B000AF034683
:102860000A46FB711346BB710023FB73FB79032BF4
:1028700033D801A252F823F0892800089F280008C5
:10288000B3280008C72800084FF080431A69BB79B5
:1028900022FA03F3DBB203F00103FB731DE0124BDA
:1028A0001A69BB7922FA03F3DBB203F00103FB736D
:1028B00013E00E4B1A69BB7922FA03F3DBB203F083
:1028C0000103FB7309E00A4B1A69BB7922FA03F38F
:1028D000DBB203F00103FB7300BFFB7B1846143728
:1028E000BD465DF8047B70470004004000080040CE
:1028F000000C004080B483B000AF0346FB710B4670
:10290000BB7113467B71FB79032B00F2578101A247
:1029100052F823F025290008DF2900087B2A000847
:10292000172B0008BB79013B032B00F2408101A269
:1029300052F823F0452900086B2900089129000866
:10294000B72900084FF080439B694FF0804223F085
:10295000700393614FF080439B697A7912011146AD
:102960004FF080420B43936138E04FF080439B6906
:102970004FF0804223F4E04393614FF080439B6922
:102980007A79120311464FF080420B43936125E0A0
:102990004FF08043DB694FF0804223F07003D36136
:1029A0004FF08043DB697A79120111464FF0804283
:1029B0000B43D36112E04FF08043DB694FF080425C
:1029C00023F4E043D3614FF08043DB697A7912034B
:1029D00011464FF080420B43D36100BFE7E0BB7963
:1029E000013B032B00F2E58001A252F823F000BF67
:1029F000012A00081F2A00083D2A00085B2A000857
:102A0000714B9B69704A23F0700393616E4B9B6915
:102A10007A79120111466C4A0B4393612CE06A4BA0
:102A20009B69694A23F4E0439361674B9B697A7918
:102A300012031146644A0B4393611DE0624BDB694C
:102A4000614A23F07003D3615F4BDB697A7912012D
:102A500011465D4A0B43D3610EE05B4BDB695A4A7A
:102A600023F4E043D361584BDB697A7912031146B2
:102A7000554A0B43D36100BF9BE0BB79013B032B5D
:102A800000F2998001A252F823F000BF9D2A0008AD
:102A9000BB2A0008D92A0008F72A00084B4B9B697B
:102AA0004A4A23F070039361484B9B697A7912017B
:102AB0001146464A0B4393612CE0444B9B69434AC1
:102AC00023F4E0439361414B9B697A7912031146E9
:102AD0003E4A0B4393611DE03C4BDB693B4A23F0CC
:102AE0007003D361394BDB697A7912011146374A99
:102AF0000B43D3610EE0354BDB69344A23F4E043EA
:102B0000D361324BDB697A79120311462F4A0B43AA
:102B1000D36100BF4FE0BB79013B032B4DD801A22D
:102B200052F823F0352B0008532B0008712B0008B6
:102B30008F2B0008264B9B69254A23F07003936175
:102B4000234B9B697A7912011146214A0B43936109
:102B50002CE01F4B9B691E4A23F4E04393611C4BFE
:102B60009B697A7912031146194A0B4393611DE060
:102B7000174BDB69164A23F07003D361144BDB69F2
:102B80007A7912011146124A0B43D3610EE0104BC1
:102B9000DB690F4A23F4E043D3610D4BDB697A799B
:102BA000120311460A4A0B43D36100BF05E000BF80
:102BB00004E000BF02E000BF00E000BF00BF0C3730
:102BC000BD465DF8047B70470004004000080040EB
:102BD000000C004080B483B000AF03460A46FB718E
:102BE0001346BB71FB79032B00F2CE8001A252F891
:102BF00023F000BF052C00086F2C0008CB2C000828
:102C0000232D0008BB79013B032B00F2B68001A203
:102C100052F823F0252C0008372C0008492C000816
:102C20005B2C00084FF080431B6A4FF0804243F05A
:102C3000010313621AE04FF080431B6A4FF0804299
:102C400043F01003136211E04FF080431B6A4FF012
:102C5000804243F48073136208E04FF080431B6AA4
:102C60004FF0804243F48053136200BF85E0BB798C
:102C7000013B032B00F2838001A252F823F000BF36
:102C8000912C00089F2C0008AD2C0008BB2C0008DC
:102C9000404B1B6A3F4A43F00103136214E03D4B73
:102CA0001B6A3C4A43F0100313620DE0394B1B6A68
:102CB000384A43F48073136206E0364B1B6A354A88
:102CC00043F48053136200BF59E0BB79013B032BEF
:102CD00057D801A252F823F0E92C0008F72C00087D
:102CE000052D0008132D00082B4B1B6A2A4A43F0C0
:102CF0000103136214E0284B1B6A274A43F01003B8
:102D000013620DE0244B1B6A234A43F48073136261
:102D100006E0214B1B6A204A43F48053136200BF34
:102D20002FE0BB79013B032B2DD801A252F823F0F1
:102D3000412D00084F2D00085D2D00086B2D000867
:102D4000164B1B6A154A43F00103136214E0134B40
:102D50001B6A124A43F0100313620DE00F4B1B6A0B
:102D60000E4A43F48073136206E00C4B1B6A0B4A55
:102D700043F48053136200BF05E000BF04E000BFCE
:102D800002E000BF00E000BF00BF0C37BD465DF8A9
:102D9000047B70470004004000080040000C004025
:102DA00080B584B000AFBA607B600346FB730B460E
:102DB000BB733A8BFB7B11461846FEF735FDFB7B58
:102DC00000211846FEF764FDB97BFB7B0022184604
:102DD000FEF7D8FDB97BFB7B06221846FFF78AFD7C
:102DE000FB7BB9681846FFF755FCB97BFB7B7A681B
:102DF0001846FFF781FCBA7BFB7B11461846FFF7AC
:102E0000E9FEFB7B1846FEF781FC00BF1037BD468C
:102E100080BD000080B500AF044B1B68002B02D0C2
:102E2000024B1B68984700BF80BD00BF78000020A0
:102E300080B500AF044B5B68002B02D0024B5B688F
:102E4000984700BF80BD00BF7800002080B500AF6C
:102E5000044B9B68002B02D0024B9B68984700BF35
:102E600080BD00BF7800002080B500AF044BDB6858
:102E7000002B02D0024BDB68984700BF80BD00BF2B
:102E80007800002080B400AF164B12229A60154AD9
:102E9000D36843F40043D360124AD3686FF30C3312
:102EA000D360104AD3686FF38A23D3600D4AD36886
:102EB0006FF38613D3600B4AD3686FF34513D36067
:102EC000084B1B69074A23F440531361054B054A1D
:102ED0001B691361034B00221A6000BFBD465DF8F9
:102EE000047B70470010014080B400AF094AD368EA
:102EF00043F00803D360074AD36843F00403D36068
:102F0000044AD36843F40053D36000BFBD465DF864
:102F1000047B70470010014080B400AF174B40F6AF
:102F200002529A60154AD36843F40043D360134AAF
:102F3000D3686FF30C33D360104AD3686FF38A23DE
:102F4000D3600E4AD3686FF38613D3600B4AD368FD
:102F50006FF34513D360094B1B69084A23F44053B0
:102F60001361064B054A1B691361044B00221A606A
:102F700000BFBD465DF8047B704700BF00440040C1
:102F800080B483B000AF0346FB71094AFB795360FC
:102F900000BF074B1B689B0903F00103002BF8D00F
:102FA00000BF00BF0C37BD465DF8047B704700BF13
:102FB0000044004080B400AF094AD36843F00803DE
:102FC000D360074AD36843F00403D360044AD3684C
:102FD00043F40053D36000BFBD465DF8047B7047E7
:102FE0000044004080B500AF044B1B68002B02D0AA
:102FF000024B1B68984700BF80BD00BF88000020BF
:1030000080B400AF00BFBD465DF8047B704780B45C
:1030100000AF00BFBD465DF8047B704780B584B04B
:1030200000AF78600123FB6017E0FA6813469B004D
:1030300013445B0018467968194BA3FB0123DA0897
:1030400013469B0013445B00CA1A8318FB607B681D
:10305000134AA2FB0323DB087B607B68002BE4D1CF
:1030600015E0F9680E4BA3FB0123DA0813469B0019
:1030700013445B00CA1AD3B23033DBB21846FFF7F1
:103080007FFFFB68064AA2FB0323DB08FB60FB68AB
:10309000012BE6D100BF00BF1037BD4680BD00BF89
:1030A000CDCCCCCC80B500AF0F210020FEF7BCFB0F
:1030B00000210020FEF7ECFB012201210020FEF799
:1030C00061FC002201210020FEF7BCFD012100204F
:1030D000FEF75AFB022202210020FEF753FC0122D8
:1030E00002210020FEF7AEFD02210020FEF74CFB7E
:1030F00006490020FFF788FA4FF6FF710020FFF71E
:10310000C9FA0020FEF702FB00BF80BD11310008A4
:1031100080B582B000AF00237B6001210020FFF763
:103120009BFB0346012B08D101210020FFF7B8F9D2
:1031300000210020FFF77CFA13E002210020FFF7B6
:103140008BFB0346012B0CD102210020FFF7A8F9CD
:1031500078607B68054AA2FB03235B099AB2044BA3
:103160001A8000BF0837BD4680BD00BF09CB3D8D2A
:103170008C00002080B582B000AF00233B600122AC
:1031800004210020FEF76CF800237B6003E000BF01
:103190007B6801337B607B68632BF8D900220421B4
:1031A0000020FEF75DF800BF01210020FFF754FB6F
:1031B0000346002BF8D001210020FFF771F9002110
:1031C0000020FFF735FA00BF02210020FFF744FB83
:1031D0000346002BF8D002210020FFF761F9386088
:1031E0003B68064AA2FB03235B099AB2044B1A8090
:1031F000034B1B8818460837BD4680BD09CB3D8D63
:103200008C00002080B582B000AF7860FFF7B2FF7D
:1032100003461A46194B1A60184B1B681846FFF7ED
:10322000FDFE164B1A6813469B0013449A00134484
:10323000B3F57A7F04DB124B4FF47A721A6011E017
:103240000E4B1B68062B03DC0D4B00221A6009E0B5
:103250000A4B1A6813469B0013449A0013441A46FB
:10326000074B1A60064B1B689BB21846FDF7C8FC5B
:10327000FDF7AEFC012000F0D5FFC7E7A800002055
:10328000AC00002080B584B000AF78600023FB6004
:10329000FDF70EFCF860FB684CF25032934203D904
:1032A0004CF25033FB6006E0FB6842F20F7293422F
:1032B00001D80023FB60FB68064AA2FB03231B091D
:1032C0001A4603210120FFF717FA0A2000F0AAFF8F
:1032D000DEE700BF1F85EB5180B584B000AF78609A
:1032E0000023FB60FDF79CFBF860FB68064A9342F5
:1032F00006D8064B186800230022002100F070FB5E
:10330000012000F08FFFEDE77F841E00A000002069
:1033100080B582B000AF7860074B1B684FF0FF317B
:10332000184600F043FC012208210020FDF702FFAF
:1033300000F0F8FFF0E700BFA000002080B588B0E3
:1033400002AFFEF701F900210220FEF737F9012153
:103350000220FEF733F904210120FEF72FF9112195
:103360000020FEF72BF902210020FEF727F90121AA
:103370000020FEF723F900210020FEF71FF90821A5
:103380000120FEF71BF90E210020FEF717F903229A
:1033900000210020FDF780FD032201210020FDF720
:1033A0007BFD022202210020FDF776FD072202218B
:1033B0000020FDF7EBFF022203210020FDF76CFD4A
:1033C000072203210020FDF7E1FF01220421002054
:1033D000FDF762FD0123002204210020FDF7DEFD40
:1033E000002204210020FDF73BFF022205210020DE
:1033F000FDF752FD012205210020FDF7C7FF022243
:1034000006210020FDF748FD022206210020FDF7DD
:10341000BDFF022207210020FDF73EFD0222072109
:103420000020FDF7B3FF012208210020FDF734FD45
:103430000123002208210020FDF7B0FD0022082111
:103440000020FDF70DFF022209210020FDF724FDD9
:10345000072209210020FDF799FF02220A210020FE
:10346000FDF71AFD07220A210020FDF78FFF012238
:103470000B210020FDF710FD012300220B2100206D
:10348000FDF78CFD01220B210020FDF7E9FE022251
:1034900000210120FDF700FD022200210120FDF79F
:1034A00075FF0F23009300234FF47A72032101204C
:1034B000FFF776FC02220C210120FDF7EDFC05222E
:1034C0000C210120FDF762FF02220D210120FDF7F2
:1034D000E3FC05220D210120FDF758FF02220E21F9
:1034E0000120FDF7D9FC05220E210120FDF74EFF3A
:1034F00002220F210120FDF7CFFC05220F21012020
:10350000FDF744FFFFF7BEFCFFF7EEFCFFF704FDFD
:10351000FFF750FDFEF7ACF8FFF7C4FDFDF786FBA3
:10352000FDF740FCFDF710FB3B4B0193012300939B
:103530000023962239493A4800F02EFD78617B69D4
:10354000012B0AD04FF0500383F31188BFF36F8F24
:10355000BFF34F8F3B6100BFFEE7324B0193032364
:103560000093002396223049304800F015FD786121
:103570007B69012B0AD04FF0500383F31188BFF30E
:103580006F8FBFF34F8FFB6000BFFEE7284B0193A7
:1035900004230093002396222649274800F0FCFCD0
:1035A00078617B69012B0AD04FF0500383F31188B7
:1035B000BFF36F8FBFF34F8FBB6000BFFEE71F4BA2
:1035C000019306230093002396221D491D4800F015
:1035D000E3FC78617B69012B0AD04FF0500383F341
:1035E0001188BFF36F8FBFF34F8F7B6000BFFEE783
:1035F00003220021012000F071F90346124A1360F2
:1036000003220021012000F069F903460F4A1360EC
:1036100000F03CFEFEE700BF94000020B456000816
:103620008532000890000020B856000805320008D6
:1036300098000020C4560008D93200089C000020E1
:10364000CC56000811330008A0000020A400002080
:103650000D488546AFF300800C480D490D4A002304
:1036600002E0D458C4500433C4188C42F9D30A4A37
:103670000A4C002301E013600432A242FBD301F0A4
:10368000CBFFFFF75BFEFEE70000012000000020FB
:1036900008000020E856000808000020442100200F
:1036A000FEE780B483B000AF78607B6803F1080266
:1036B0007B685A607B684FF0FF329A607B6803F149
:1036C00008027B68DA607B6803F108027B681A6194
:1036D0007B6800221A6000BF0C37BD465DF8047B92
:1036E000704780B483B000AF78607B6800221A61B5
:1036F00000BF0C37BD465DF8047B704780B485B0D1
:1037000000AF786039607B685B68FB603B68FA6893
:103710005A60FB689A683B689A60FB689B683A68E5
:103720005A60FB683A689A603B687A681A617B68FD
:103730001B685A1C7B681A6000BF1437BD465DF8D1
:10374000047B704780B485B000AF786039603B6817
:103750001B68BB60BB68B3F1FF3F03D17B681B698B
:10376000FB600CE07B680833FB6002E0FB685B6891
:10377000FB60FB685B681B68BA689A42F6D2FB681C
:103780005A683B685A603B685B683A689A603B6875
:10379000FA689A60FB683A685A603B687A681A610E
:1037A0007B681B685A1C7B681A6000BF1437BD46D3
:1037B0005DF8047B704780B485B000AF78607B68AB
:1037C0001B69FB607B685B687A6892689A607B68BB
:1037D0009B687A6852685A60FB685B687A689A42AC
:1037E00003D17B689A68FB685A607B6800221A6183
:1037F000FB681B685A1EFB681A60FB681B6818464A
:103800001437BD465DF8047B7047000080B584B076
:1038100000AF786039607B68FB60FB68002B0AD1E1
:103820004FF0500383F31188BFF36F8FBFF34F8FB7
:10383000BB6000BFFEE701F017FCFB681A68FB687D
:10384000DB6BF968096C01FB03F31A44FB689A60AF
:10385000FB6800229A63FB681A68FB685A60FB6881
:103860001A68FB68DB6B013BF968096C01FB03F329
:103870001A44FB68DA60FB68FF2283F84420FB6887
:10388000FF2283F845203B68002B14D1FB681B699D
:10389000002B1AD0FB681033184600F025FF0346B2
:1038A000002B12D00C4B4FF080521A60BFF34F8F99
:1038B000BFF36F8F09E0FB6810331846FFF7F1FE86
:1038C000FB6824331846FFF7ECFE01F0FDFB0123F3
:1038D00018461037BD4680BD04ED00E080B58CB0C1
:1038E00002AFF860B9601346FB71FB68002B0AD188
:1038F0004FF0500383F31188BFF36F8FBFF34F8FE7
:10390000BB6100BFFEE7FB68BA6802FB03F37B62A2
:10391000BB68002B06D07A6ABB68B2FBF3F3FA6887
:103920009A4201D1012300E00023002B0AD14FF07D
:10393000500383F31188BFF36F8FBFF34F8F7B6109
:1039400000BFFEE77B6A13F1510F0AD94FF0500315
:1039500083F31188BFF36F8FBFF34F8F3B6100BFBD
:10396000FEE77B6A5033184601F058FC38623B6A28
:10397000002B0DD03B6AFB61FB695033FB61FA7988
:103980003B6A00931346FA69B968F86800F005F8D5
:103990003B6A18462837BD4680BD80B584B000AF6D
:1039A000F860B9607A60FB70BB68002B03D1BB691B
:1039B000BA691A6002E0BB697A681A60BB69FA6882
:1039C000DA63BB69BA681A640121B869FFF71EFFA0
:1039D000BB69FA7883F84C2000BF1037BD4680BD24
:1039E00080B58CB000AFF860B9607A603B600023AE
:1039F000FB62FB68BB62BB6A002B0AD14FF050032D
:103A000083F31188BFF36F8FBFF34F8F3B6200BF0B
:103A1000FEE7BB68002B03D1BB6A1B6C002B01D1F6
:103A2000012300E00023002B0AD14FF0500383F361
:103A30001188BFF36F8FBFF34F8FFB6100BFFEE7AD
:103A40003B68022B03D1BB6ADB6B012B01D1012345
:103A500000E00023002B0AD14FF0500383F31188BC
:103A6000BFF36F8FBFF34F8FBB6100BFFEE701F065
:103A7000FBFABB6A9A6BBB6ADB6B9A4202D33B6868
:103A8000022B29D13A68B968B86A00F09BF97862CC
:103A9000BB6A5B6A002B10D0BB6A2433184600F067
:103AA00023FE0346002B13D03F4B4FF080521A6089
:103AB000BFF34F8FBFF36F8F0AE07B6A002B07D0F5
:103AC000394B4FF080521A60BFF34F8FBFF36F8FA7
:103AD00001F0FAFA012363E07B68002B03D101F0C7
:103AE000F3FA00235CE0FB6A002B06D107F1100318
:103AF000184600F05BFE0123FB6201F0E5FA00F0DE
:103B000011FC01F0B1FABB6A93F844305BB2B3F137
:103B1000FF3F03D1BB6A002283F84420BB6A93F8BD
:103B200045305BB2B3F1FF3F03D1BB6A002283F89B
:103B3000452001F0C9FA3A1D07F110031146184655
:103B400000F04AFE0346002B24D1B86A00F00CFABC
:103B50000346002B18D0BB6A10337A68114618460A
:103B600000F09EFDB86A00F097F900F0E9FB03460B
:103B7000002B7FF47CAF0C4B4FF080521A60BFF3E8
:103B80004F8FBFF36F8F72E7B86A00F085F900F0CE
:103B9000D7FB6CE7B86A00F07FF900F0D1FB002397
:103BA00018463037BD4680BD04ED00E080B58CB0CE
:103BB00000AF786039600023FB627B687B62002382
:103BC000BB627B6A002B0AD14FF0500383F311884C
:103BD000BFF36F8FBFF34F8FBB6100BFFEE77B6A00
:103BE0001B6C002B0AD04FF0500383F31188BFF3F6
:103BF0006F8FBFF34F8F7B6100BFFEE701F034FA98
:103C00007B6A9B6B3B623B6A002B24D03B6A5A1E4B
:103C10007B6A9A637B6A1B68002B04D101F07EF8F3
:103C200002467B6A9A607B6A1B69002B0FD07B6A15
:103C30001033184600F058FD0346002B07D0544BB4
:103C40004FF080521A60BFF34F8FBFF36F8F01F0B8
:103C50003BFA012397E03B68002B11D1BB6A002B94
:103C60000AD04FF0500383F31188BFF36F8FBFF377
:103C70004F8F3B6100BFFEE701F026FA002382E090
:103C8000FB6A002B06D107F10803184600F08EFDF1
:103C90000123FB6201F018FA00F044FB01F0E4F9A3
:103CA0007B6A93F844305BB2B3F1FF3F03D17B6A88
:103CB000002283F844207B6A93F845305BB2B3F16D
:103CC000FF3F03D17B6A002283F8452001F0FCF915
:103CD0003A4607F108031146184600F07DFD0346F9
:103CE000002B32D1786A00F029F90346002B26D048
:103CF0007B6A1B68002B09D101F0B6F97B6A9B68CF
:103D0000184600F08DFEB86201F0DEF97B6A2433BC
:103D10003A681146184600F0C3FC786A00F0BCF817
:103D200000F00EFB0346002B7FF468AF184B4FF0FA
:103D300080521A60BFF34F8FBFF36F8F5EE7786AD0
:103D400000F0AAF800F0FCFA58E7786A00F0A4F84E
:103D500000F0F6FA786A00F0F1F80346002B3FF421
:103D60004DAFBB6A002B0DD001F07EF9786A00F0F0
:103D700011F8F8617B6A9B68F969184600F040FF0A
:103D800001F0A2F9002318463037BD4680BD00BFC0
:103D900004ED00E080B485B000AF78607B685B6ABA
:103DA000002B06D07B681B6B1B68C3F10703FB600D
:103DB00001E00023FB60FB6818461437BD465DF840
:103DC000047B704780B586B000AFF860B9607A6058
:103DD00000237B61FB689B6B3B61FB681B6C002BCA
:103DE0000DD1FB681B68002B4DD1FB689B68184602
:103DF00000F08CFE7861FB6800229A6043E07B68EB
:103E0000002B19D1FB685868FB681B6C1A46B9680F
:103E100001F026FCFB685A68FB681B6C1A44FB68BF
:103E20005A60FB685A68FB689B689A422BD3FB6810
:103E30001A68FB685A6026E0FB68D868FB681B6C50
:103E40001A46B96801F00CFCFB68DA68FB681B6C69
:103E50005B421A44FB68DA60FB68DA68FB681B683F
:103E60009A4207D2FB689A68FB681B6C5B421A4453
:103E7000FB68DA607B68022B05D13B69002B02D01E
:103E80003B69013B3B613B695A1CFB689A637B6958
:103E900018461837BD4680BD80B584B000AF786045
:103EA00001F0E2F87B6893F84530FB7311E07B6822
:103EB0005B6A002B12D07B682433184600F014FC98
:103EC0000346002B01D000F0EDFCFB7B013BDBB295
:103ED000FB7397F90F30002BE9DC00E000BF7B6833
:103EE000FF2283F8452001F0EFF801F0BDF87B6870
:103EF00093F84430BB7311E07B681B69002B12D030
:103F00007B681033184600F0EFFB0346002B01D00E
:103F100000F0C8FCBB7B013BDBB2BB7397F90E30F2
:103F2000002BE9DC00E000BF7B68FF2283F844201F
:103F300001F0CAF800BF1037BD4680BD80B584B01F
:103F400000AF786001F090F87B689B6B002B02D18A
:103F50000123FB6001E00023FB6001F0B5F8FB6882
:103F600018461037BD4680BD80B584B000AF78607C
:103F700001F07AF87B689A6B7B68DB6B9A4202D11E
:103F80000123FB6001E00023FB6001F09DF8FB686A
:103F900018461037BD4680BD80B58CB004AFF860C0
:103FA000B9603B601346FB80FB889B00184601F01C
:103FB00035F978617B69002B0ED0582001F02EF97D
:103FC000F861FB69002B03D0FB697A691A6305E08D
:103FD000786901F003FA01E00023FB61FB69002B23
:103FE00013D0FA8800230393FB690293FB6A0193C1
:103FF000BB6A00933B68B968F86800F00EF8F8698E
:1040000000F0A2F80123BB6102E04FF0FF33BB6177
:10401000BB6918462037BD4680BD80B588B000AF6B
:10402000F860B9607A603B603B6B186B7B689B0003
:104030001A46A52101F022FB3B6B1A6B7B6803F14A
:104040008043013B9B001344BB61BB6923F0070322
:10405000BB61BB6903F00703002B0AD04FF050038C
:1040600083F31188BFF36F8FBFF34F8F7B6100BF66
:10407000FEE7BB68002B1FD00023FB6112E0BA688B
:10408000FB69134419783A6BFB69134434330A46CD
:104090001A70BA68FB6913441B78002B06D0FB69C1
:1040A0000133FB61FB69092BE9D900E000BF3B6BE1
:1040B000002283F83D2003E03B6B002283F834208C
:1040C000BB6A062B01D90623BB623B6BBA6ADA6274
:1040D0003B6BBA6A9A643B6B0022DA643B6B043335
:1040E0001846FFF7FEFA3B6B18331846FFF7F9FA4C
:1040F0003B6B3A6B1A61BB6AC3F107023B6B9A6177
:104100003B6B3A6B5A623B6B5033042200211846DA
:1041100001F0B4FA3B6B543301220021184601F040
:10412000ADFA3A68F968B86900F072FE02463B6B76
:104130001A60FB6A002B02D0FB6A3A6B1A6000BF60
:104140002037BD4680BD000080B582B000AF7860EA
:1041500000F08AFF2C4B1B6801332B4A13602B4B5A
:104160001B68002B09D1294A7B681360264B1B680A
:10417000012B10D100F0BAFB0DE0254B1B68002B82
:1041800009D1224B1B68DA6A7B68DB6A9A4202D843
:104190001E4A7B6813601F4B1B6801331D4A136066
:1041A0001C4B1A687B681A647B68DB6A01229A40A0
:1041B000194B1B681343184A13607B68DA6A13466D
:1041C0009B0013449B00154A1A447B68043319462C
:1041D0001046FFF793FA00F077FF0D4B1B68002B9A
:1041E0000ED00A4B1B68DA6A7B68DB6A9A4207D2F8
:1041F0000B4B4FF080521A60BFF34F8FBFF36F8F9E
:1042000000BF0837BD4680BDB0010020B0000020CF
:10421000BC010020CC010020B8010020B400002027
:1042200004ED00E080B584B000AF78600023FB604F
:104230007B68002B17D0134B1B68002B0AD04FF064
:10424000500383F31188BFF36F8FBFF34F8FBB60B1
:1042500000BFFEE700F066F80021786800F072FD0C
:1042600000F06EF8F860FB68002B07D1064B4FF0AA
:1042700080521A60BFF34F8FBFF36F8F00BF1037AC
:10428000BD4680BDD801002004ED00E080B586B0B9
:1042900002AF1D4B019300230093002396221B497C
:1042A0001B48FFF779FEF860FB68012B16D14FF031
:1042B000500383F31188BFF36F8FBFF34F8FBB6041
:1042C00000BF144B4FF0FF321A60134B01221A60EB
:1042D000124B00221A6000F025FE0EE0FB68B3F1DD
:1042E000FF3F0AD14FF0500383F31188BFF36F8F64
:1042F000BFF34F8F7B6000BFFEE7094B1B6800BF19
:104300001037BD4680BD00BFD4010020D85600083C
:10431000BD480008D0010020BC010020B4010020ED
:104320000000002080B400AF044B1B680133034A37
:10433000136000BFBD465DF8047B7047D8010020C4
:1043400080B584B000AF0023FB600023BB60414B0D
:104350001B68002B0AD14FF0500383F31188BFF381
:104360006F8FBFF34F8F3B6000BFFEE700F07CFE16
:10437000384B1B68013B374A1360364B1B68002BD8
:1043800061D1354B1B68002B5DD02EE0334BDB68D1
:10439000DB68FB60FB6818331846FFF70CFAFB6814
:1043A00004331846FFF707FAFB68DB6A01229A40DC
:1043B0002B4B1B6813432A4A1360FB68DA6A1346C7
:1043C0009B0013449B00274A1A44FB680433194698
:1043D0001046FFF793F9FB68DA6A234B1B68DB6A28
:1043E0009A4202D3214B01221A601C4B1B68002BFE
:1043F000CCD1FB68002B01D000F0F6FA1C4B1B68F7
:104400007B607B68002B10D000F036F80346002B51
:1044100002D0164B01221A607B68013B7B607B68EF
:10442000002BF1D1124B00221A60104B1B68002B9D
:1044300009D00123BB600F4B4FF080521A60BFF3CD
:104440004F8FBFF36F8F00F03FFEBB6818461037E9
:10445000BD4680BDD8010020B001002070010020C1
:10446000B8010020B4000020B0000020C4010020EA
:10447000C001002004ED00E080B586B000AF00234D
:104480007B614E4B1B68002B40F08E804C4B1B68B1
:1044900001333B614A4A3B6913603B69002B20D1E1
:1044A000484B1B681B68002B0AD04FF0500383F366
:1044B0001188BFF36F8FBFF34F8F3B6000BFFEE7E4
:1044C000404B1B68FB60404B1B683E4A13603E4AF2
:1044D000FB6813603D4B1B6801333C4A136000F0DE
:1044E00083FA3B4B1B683A699A4248D3354B1B68A9
:1044F0001B68002B04D1364B4FF0FF321A603EE0B0
:10450000304B1B68DB68DB68BB60BB685B687B604B
:104510003A697B689A4203D22D4A7B6813602EE089
:10452000BB6804331846FFF746F9BB689B6A002B4B
:1045300004D0BB6818331846FFF73DF9BB68DB6A47
:1045400001229A40234B1B681343224A1360BB6825
:10455000DA6A13469B0013449B001F4A1A44BB6847
:10456000043319461046FFF7C9F8BB68DA6A1B4BDB
:104570001B68DB6A9A42B9D301237B61B6E7174B0C
:104580001B68DA6A144913469B0013449B000B44D2
:104590001B68012B01D901237B61114B1B68002B88
:1045A00007D001237B6104E00E4B1B6801330D4AE9
:1045B00013607B6918461837BD4680BDD8010020BE
:1045C000B4010020680100206C010020C801002017
:1045D000D0010020B8010020B4000020B00000206D
:1045E000C4010020C001002080B487B000AF274B79
:1045F0001B68002B03D0264B01221A603FE0244B9E
:1046000000221A60234B1B68FB60FB68B3FA83F33C
:10461000FB72FB7AC3F11F037B611F497A69134662
:104620009B0013449B000B441B68002B0AD14FF0E6
:10463000500383F31188BFF36F8FBFF34F8F7B60FD
:1046400000BFFEE77A6913469B0013449B00124AA1
:1046500013443B613B695B685A683B695A603B693C
:104660005A683B6908339A4204D13B695B685A68CF
:104670003B695A603B695B68DB68084A136000BFAE
:104680001C37BD465DF8047B704700BFD801002091
:10469000C4010020B8010020B4000020B0000020B8
:1046A00080B584B000AF786039607B68002B0AD198
:1046B0004FF0500383F31188BFF36F8FBFF34F8F19
:1046C000FB6000BFFEE7074B1B681833194678688C
:1046D000FFF738F80121386800F034FB00BF1037CD
:1046E000BD4680BDB000002080B586B000AF7860C8
:1046F0007B68DB68DB683B613B69002B0AD14FF0CC
:10470000500383F31188BFF36F8FBFF34F8FFB60AC
:1047100000BFFEE73B6918331846FFF74CF81D4B06
:104720001B68002B1CD13B6904331846FFF743F884
:104730003B69DB6A01229A40174B1B681343164AF8
:1047400013603B69DA6A13469B0013449B00134ACB
:104750001A443B69043319461046FEF7CFFF05E0C3
:104760003B69183319460E48FEF7C8FF3B69DA6A01
:104770000C4B1B68DB6A9A4205D901237B610A4B0B
:1047800001221A6001E000237B617B69184618371B
:10479000BD4680BDD8010020B8010020B400002033
:1047A00070010020B0000020C401002080B483B05C
:1047B00000AF7860064B1A687B681A60054B1A6870
:1047C0007B685A6000BF0C37BD465DF8047B7047BC
:1047D000C8010020B401002080B588B000AF786027
:1047E00039607B68002B0AD14FF0500383F31188A6
:1047F000BFF36F8FBFF34F8F3B6100BFFEE73B6896
:10480000002B0AD14FF0500383F31188BFF36F8F51
:10481000BFF34F8FFB6000BFFEE700F025FC1F4B8E
:104820001B68BB617B685B68BA69D31A7B613B68B4
:104830001B68B3F1FF3F02D10023FB6126E07B68D8
:104840001A68174B1B689A420AD07B685B68BA6982
:104850009A4205D30123FB613B6800221A6015E0F0
:104860003B681B687A699A420BD23B681A687B697D
:10487000D21A3B681A607868FFF798FF0023FB6143
:1048800004E03B6800221A600123FB6100F01CFC7D
:10489000FB6918462037BD4680BD00BFB40100202B
:1048A000C801002080B400AF034B01221A6000BF92
:1048B000BD465DF8047B7047C401002080B582B01E
:1048C00000AF786000F052F8064B1B68012BF9D955
:1048D000054B4FF080521A60BFF34F8FBFF36F8FBD
:1048E000F0E700BFB400002004ED00E080B582B026
:1048F00000AF00237B600CE07A6813469B001344F2
:104900009B00124A13441846FEF7CBFE7B68013326
:104910007B607B68062BEFD90D48FEF7C2FE0D4881
:10492000FEF7BFFE0C48FEF7BCFE0C48FEF7B9FED2
:104930000B48FEF7B6FE0B4B054A1A600A4B054AB8
:104940001A6000BF0837BD4680BD00BFB40000201C
:10495000400100205401002070010020840100204B
:104960009C010020680100206C01002080B582B00D
:1049700000AF19E000F078FB104BDB68DB687B6070
:104980007B6804331846FEF716FF0D4B1B68013B8E
:104990000B4A13600B4B1B68013B0A4A136000F083
:1049A00093FB786800F010F8064B1B68002BE1D1F0
:1049B00000BF00BF0837BD4680BD00BF8401002096
:1049C000B00100209801002080B582B000AF78606F
:1049D0007B681B6B184600F001FD786800F0FEFC58
:1049E00000BF0837BD4680BD80B400AF0A4B1B68CE
:1049F0001B68002B04D1094B4FF0FF321A6005E011
:104A0000054B1B68DB681B68044A136000BFBD468A
:104A10005DF8047B704700BF68010020D0010020D2
:104A200080B584B000AF78607B68BB600023FB601A
:104A30007B68002B5ED0BB68DA6A314B1B68DB6A8F
:104A40009A424ED2BB689B69002B06DB2C4B1B683D
:104A5000DB6AC3F10702BB689A61BB685969BB682E
:104A6000DA6A13469B0013449B00264A134499427A
:104A70002FD1BB6804331846FEF79DFE0346002B7A
:104A80000AD1BB68DB6A012202FA03F3DA431E4B48
:104A90001B6813401C4A1360194B1B68DA6ABB6819
:104AA000DA62BB68DB6A01229A40174B1B6813432A
:104AB000154A1360BB68DA6A13469B0013449B00D7
:104AC000104A1A44BB68043319461046FEF716FE16
:104AD00004E00B4B1B68DA6ABB68DA620123FB60F7
:104AE00008E0BB689A6C064B1B68DB6A9A4201D2ED
:104AF0000123FB60FB6818461037BD4680BD00BF30
:104B0000B0000020B4000020B801002080B586B0BD
:104B100000AF78607B683B6100237B617B68002B82
:104B200063D0344B1B683A699A420AD04FF0500365
:104B300083F31188BFF36F8FBFF34F8FFB6000BF0C
:104B4000FEE73B69DB6C002B0AD14FF0500383F387
:104B50001188BFF36F8FBFF34F8FBB6000BFFEE7BD
:104B60003B69DB6C5A1E3B69DA643B69DA6A3B6974
:104B70009B6C9A4239D03B69DB6C002B35D13B6989
:104B800004331846FEF717FE0346002B0AD13B6993
:104B9000DB6A012202FA03F3DA43174B1B68134066
:104BA000154A13603B699A6C3B69DA623B69DB6AC0
:104BB000C3F107023B699A613B69DB6A01229A40B3
:104BC0000D4B1B6813430C4A13603B69DA6A1346AA
:104BD0009B0013449B00094A1A443B69043319465D
:104BE0001046FEF78BFD01237B617B691846183761
:104BF000BD4680BDB0000020B8010020B4000020F8
:104C000080B588B000AF786039607B68BB610123F4
:104C10007B617B68002B77D0BB69DB6C002B0AD1F2
:104C20004FF0500383F31188BFF36F8FBFF34F8FA3
:104C3000FB6000BFFEE7BB699B6C3A689A4202D9F1
:104C40003B68FB6102E0BB699B6CFB61BB69DB6A93
:104C5000FA699A4258D0BB69DB6C7A699A4253D19F
:104C60002B4B1B68BA699A420AD14FF0500383F369
:104C70001188BFF36F8FBFF34F8FBB6000BFFEE79C
:104C8000BB69DB6A3B61BB69FA69DA62BB699B6934
:104C9000002B04DBFB69C3F10702BB699A61BB69A6
:104CA00059693A6913469B0013449B00194A1344FF
:104CB000994229D1BB6904331846FEF77CFD0346AF
:104CC000002B0AD1BB69DB6A012202FA03F3DA4343
:104CD000114B1B681340104A1360BB69DB6A012249
:104CE0009A400D4B1B6813430B4A1360BB69DA6A89
:104CF00013469B0013449B00064A1A44BB690433C5
:104D000019461046FEF7FAFC00BF2037BD4680BDAD
:104D1000B0000020B4000020B801002080B400AF33
:104D2000074B1B68002B04D0054B1B68DA6C013263
:104D3000DA64034B1B681846BD465DF8047B704778
:104D4000B000002080B584B000AF78603960294B96
:104D50001B68FB60284B1B6804331846FEF72BFDCD
:104D60000346002B0BD1244B1B68DB6A012202FA9D
:104D700003F3DA43214B1B681340204A13607B681E
:104D8000B3F1FF3F0AD13B68002B07D01A4B1B68D9
:104D9000043319461A48FEF7B1FC26E0FA687B682E
:104DA0001344BB60144B1B68BA685A60BA68FB684E
:104DB0009A4209D2134B1A680F4B1B6804331946E9
:104DC0001046FEF7BFFC10E00F4B1A680A4B1B6839
:104DD000043319461046FEF7B5FC0C4B1B68BA6845
:104DE0009A4202D2094ABB68136000BF1037BD4621
:104DF00080BD00BFB4010020B0000020B801002039
:104E00009C0100206C01002068010020D0010020DE
:104E100080B485B000AFF860B9607A60FB68043B8D
:104E2000FB60FB684FF080721A60FB68043BFB601C
:104E3000BB6823F00102FB681A60FB68043BFB605F
:104E40000C4AFB681A60FB68143BFB607A68FB68DD
:104E50001A60FB68043BFB60FB686FF002021A609B
:104E6000FB68203BFB60FB6818461437BD465DF8C5
:104E7000047B7047794E000880B485B000AF0023F2
:104E80007B60124B1B68B3F1FF3F0AD04FF0500319
:104E900083F31188BFF36F8FBFF34F8FFB6000BFA9
:104EA000FEE74FF0500383F31188BFF36F8FBFF31A
:104EB0004F8FBB6000BF00BF7B68002BFCD000BFE2
:104EC00000BF1437BD465DF8047B70470400002026
:104ED000074B19680868B0E8F04F80F30988BFF302
:104EE0006F8F4FF0000080F311887047AFF30080A0
:104EF000B000002000BF00BF08480068006880F3D1
:104F000008884FF0000080F3148862B661B6BFF3E2
:104F10004F8FBFF36F8F00DF00BF000008ED00E090
:104F200000BF00BF80B586B000AF464B1B68464A45
:104F300093420AD14FF0500383F31188BFF36F8F70
:104F4000BFF34F8F3B6100BFFEE73E4B1B683F4AFC
:104F500093420AD14FF0500383F31188BFF36F8F50
:104F6000BFF34F8FFB6000BFFEE7394B7B617B696E
:104F70001B78DBB27B607B69FF221A707B691B7830
:104F8000DBB2FB70FB78DBB203F05003DAB2314BDB
:104F90001A70314B07221A6009E02F4B1B68013B46
:104FA0002D4A1360FB78DBB25B00DBB2FB70FB7851
:104FB000DBB203F08003802BEFD0274B1B68C3F1DB
:104FC0000703042B0AD04FF0500383F31188BFF37B
:104FD0006F8FBFF34F8FBB6000BFFEE71E4B1B6898
:104FE0001B021D4A13601C4B1B6803F4E0631A4A42
:104FF00013607B68DAB27B691A70184B1B68174A1A
:1050000043F470031360154B1B68144A43F070435C
:10501000136000F0DBF8124B00221A6000F0F2F887
:10502000104B1B680F4A43F040431360FFF764FFC7
:10503000FFF7DAFAFFF720FF002318461837BD46BE
:1050400080BD00BF00ED00E071C20F4170C20F4192
:1050500000E400E0DC010020E001002020ED00E0A1
:105060000400002034EF00E080B483B000AF4FF0C4
:10507000500383F31188BFF36F8FBFF34F8F7B60B3
:1050800000BF0F4B1B6801330D4A13600C4B1B68AC
:10509000012B0FD10B4B1B68DBB2002B0AD04FF05A
:1050A000500383F31188BFF36F8FBFF34F8F3B60C3
:1050B00000BFFEE700BF0C37BD465DF8047B7047BC
:1050C0000400002004ED00E080B483B000AF124B78
:1050D0001B68002B0AD14FF0500383F31188BFF3F4
:1050E0006F8FBFF34F8F7B6000BFFEE70A4B1B68DB
:1050F000013B094A1360084B1B68002B05D10023B4
:105100003B603B6883F3118800BF00BF0C37BD468E
:105110005DF8047B704700BF040000200000000021
:10512000EFF30980BFF36F8F154B1A681EF0100F55
:1051300008BF20ED108A20E9F04F10602DE909002A
:105140004FF0500080F31188BFF34F8FBFF36F8F84
:10515000FFF74AFA4FF0000080F3118809BC196884
:105160000868B0E8F04F1EF0100F08BFB0EC108ACE
:1051700080F30988BFF36F8F704700BFAFF30080E3
:10518000B000002000BF00BF80B582B000AF4FF07C
:10519000500383F31188BFF36F8FBFF34F8F7B6092
:1051A00000BFFFF769F90346002B03D0064B4FF011
:1051B00080521A6000233B603B6883F3118800BF74
:1051C00000BF0837BD4680BD04ED00E080B400AFED
:1051D000084B00221A60084B00221A60074B084A4D
:1051E0001A60044B07221A6000BFBD465DF8047BBD
:1051F000704700BF10E000E018E000E014E000E0BD
:10520000FF340C00DFF80C00016841F4700101600C
:105210007047000088ED00E000BF00BF80B58AB095
:1052200000AF78600023FB61FFF77CF8654B1B68DB
:10523000002B01D100F034F9634B1A687B681340EE
:10524000002B40F0A7807B68002B2DD008227B68C4
:1052500013447A689A4227D208227B6813447B6001
:105260007B6803F00703002B21D07B6823F0070342
:1052700008337A689A4214D27B6823F00703083314
:105280007B607B6803F00703002B10D04FF05003C6
:1052900083F31188BFF36F8FBFF34F8F7B6100BF24
:1052A000FEE700237B6002E000237B6000E000BF9C
:1052B0007B68002B6ED0454B1B687A689A4269D890
:1052C000434B3B62424B1B687B6204E07B6A3B6260
:1052D0007B6A1B687B627B6A5B687A689A4203D947
:1052E0007B6A1B68002BF1D1364B1B687A6A9A42A5
:1052F00050D03B6A1B6808221344FB617B6A1A6822
:105300003B6A1A607B6A5A687B68D21A08235B0082
:105310009A421FD97A6A7B681344BB61BB6903F068
:105320000703002B0AD04FF0500383F31188BFF31B
:105330006F8FBFF34F8F3B6100BFFEE77B6A5A68F8
:105340007B68D21ABB695A607B6A7A685A60B8690E
:1053500000F008F91D4B1A687B6A5B68D31A1B4A78
:1053600013601A4B1A681B4B1B689A4203D2174BE7
:105370001B68184A13607B6A5A68134B1B681A43F0
:105380007B6A5A607B6A00221A60134B1B680133E8
:10539000114A1360FEF7D4FFFB6903F00703002BEB
:1053A0000AD04FF0500383F31188BFF36F8FBFF320
:1053B0004F8FFB6000BFFEE7FB6918462837BD46EC
:1053C00080BD00BF2C210020402100203021002082
:1053D00024210020342100203821002080B586B00F
:1053E00000AF78607B687B617B68002B4DD0082321
:1053F0005B427A6913447B617B693B613B695A6814
:10540000244B1B681340002B0AD14FF0500383F349
:105410001188BFF36F8FBFF34F8FFB6000BFFEE7B4
:105420003B691B68002B0AD04FF0500383F31188AF
:10543000BFF36F8FBFF34F8FBB6000BFFEE73B69C9
:105440005A68144B1B681340002B1ED03B691B6825
:10545000002B1AD13B695A680E4B1B68DB431A407C
:105460003B695A60FEF75EFF3B695A680A4B1B684E
:105470001344094A1360386900F074F8074B1B683D
:105480000133064A1360FEF75BFF00BF1837BD46C5
:1054900080BD00BF40210020302100203C210020A1
:1054A00080B485B000AF4FF4FA53BB60274BFB606C
:1054B000FB6803F00703002B0CD0FB680733FB608D
:1054C000FB6823F00703FB60BA68FB68D31A1F4A26
:1054D0001344BB60FB687B601D4A7B6813601C4BF8
:1054E00000225A607B68BA681344FB600822FB689C
:1054F0009B1AFB60FB6823F00703FB60FB68154AFF
:105500001360144B1B6800225A60124B1B68002268
:105510001A607B683B603B68FA68D21A3B685A6045
:105520000C4B1A683B681A603B685B680A4A136058
:105530003B685B68094A1360094B4FF000421A60F0
:1055400000BF1437BD465DF8047B7047E4010020BE
:10555000242100202C210020342100203021002093
:105560004021002080B485B000AF7860284BFB60FC
:1055700002E0FB681B68FB60FB681B687A689A4264
:10558000F7D8FB68BB60FB685B68BA6813447A684D
:105590009A4208D1FB685A687B685B681A44FB68CA
:1055A0005A60FB687B607B68BB607B685B68BA683D
:1055B0001A44FB681B689A4218D1FB681A68154B9D
:1055C0001B689A420DD07B685A68FB681B685B6851
:1055D0001A447B685A60FB681B681A687B681A600B
:1055E00008E00C4B1A687B681A6003E0FB681A68D5
:1055F0007B681A60FA687B689A4202D0FB687A6816
:105600001A6000BF1437BD465DF8047B704700BFC9
:10561000242100202C21002070B50D4D0D4C641B61
:10562000A4100026A64209D10B4D0C4C00F02EF818
:10563000641BA4100026A64205D170BD55F8043B9A
:1056400098470136EEE755F8043B98470136F2E7F4
:10565000E0560008E0560008E0560008E45600084E
:105660000A44914200F1FF3300D1704710B511F8A0
:10567000014B03F8014F9142F9D110BD024403469A
:10568000934200D1704703F8011BF9E7F8B500BF5A
:10569000F8BC08BC9E467047F8B500BFF8BC08BC13
:0456A0009E4670476B
:1056A40000000000000000000001010101010000F1
:1056B4004C445200556C747261736F6E69630000E0
:1056C40041697262616700004163636964656E7475
:0C56D4000000000049444C4500000000AC
:0456E000C5010008F8
:0456E400A101000818
:0856E80006000000AAAAAAAA0C
:040000050800365168
:00000001FF
