:020000040800F2
:1000000000000120C5020008CB020008CF02000852
:1000100041030008450300088D03000800000000AC
:10002000000000000000000000000000D5030008F0
:10003000D903000800000000DD030008D10B000810
:10004000F1030008F1030008F1030008F1030008C0
:10005000F1030008F1030008F1030008F1030008B0
:10006000F1030008F1030008F1030008F1030008A0
:10007000F1030008F1030008F1030008F103000890
:10008000F1030008F1030008F1030008000000007C
:10009000000000000000000000000000F103000864
:1000A000F1030008F1030008F1030008F103000860
:1000B000F1030008F1030008F1030008F103000850
:1000C000F1030008F1030008F1030008F103000840
:1000D000F1030008A90C0008B90C0008000000009A
:1000E000F1030008F1030008F1030008000000001C
:1000F000000000000000000000000000F103000804
:1001000000000000F1030008F1030008F1030008FB
:1001100000000000000000000000000000000000DF
:10012000F1030008F1030008F1030008F1030008DF
:10013000F1030008000000000000000000000000C3
:10014000000000000000000000000000F1030008B3
:10015000F1030008F1030008F1030008C90C0008CE
:10016000F1030008F1030008000000000000000097
:10017000000000000000000000000000000000007F
:1001800000000000F1030008000000000000000073
:10019000F103000800B583B000F048FA384B394A43
:1001A0001360394A1360394906E052F8041B43F8DA
:1001B000041B9842F9D86146354B994205D20A682A
:1001C0004B6801F10C0C8868F3E72E4B1A68314B31
:1001D0009A4200D0FEE72C4B1A682F4B9A42F9D175
:1001E000274B2E4A13602E4A13602E4A00E0024627
:1001F0002D4B9A4209D2104650F8083B516899425B
:10020000F5D9002243F8042BF9E7244B1B6813B9F6
:10021000234B1B6803B1FEE700F014FA694601A8FE
:1002200000F022F9214C224BE41AA410002504E02E
:100230001F4B53F8253098470135AC42F8DC1D4C74
:100240001D4BE41AA410002504E01B4B53F8253085
:1002500098470135AC42F8DC0099019800F0BAFFEC
:100260000546164C164BE41AA41004E0013C144B4E
:1002700053F824309847002CF8DC284600F0D0F8DA
:10028000BABADECA0000002064000020F4030008AF
:100290000C04000878563412325476986800002016
:1002A0005C0200200C0400081C0400081C04000868
:1002B0001C0400081C0400081C0400081C0400089E
:1002C0001C04000808B5FFF765FF00BEFEE71EF03E
:1002D000040F0CBFEFF30880EFF309807146414A29
:1002E00010472DE9F04182B004460D46124B5F6B7A
:1002F000D3F838809E6A1B6B13F0020F03D00E4BAD
:10030000DB6A002B0BDB0D4800F0ECF80095434650
:100310003A463146204600F0FFF800BEFEE74BF6B5
:10032000AB6100F073F90028EDD0034B4FF00042B1
:10033000DA6202B0BDE8F08100ED00E0D8250008E7
:1003400000BEFEE71EF0040F0CBFEFF30880EFF3D2
:1003500009807146244A10472DE9F04182B00446D5
:100360000D46084B5F6BD3F838809E6A064800F054
:10037000B9F8009543463A463146204600F0CCF89D
:1003800000BEFEE700ED00E0E82500081EF0040FC7
:100390000CBFEFF30880EFF309807146134A104752
:1003A0002DE9F04182B004460D46084B5F6BD3F84F
:1003B00038809E6A064800F095F8009543463A4614
:1003C0003146204600F0A8F800BEFEE700ED00E050
:1003D000F425000800BEFEE700BEFEE700BEFEE713
:1003E00070470000E302000859030008A103000859
:0403F00000BEFEE766
:1003F400D42600080000002068000020D42600084D
:1004040000000010000000106800002060020020BE
:080414000000001000000010C0
:10042000FEE7000008B503460C4A12685AB10B4AB1
:100430001068033323F003030344094A934206D8A8
:10044000064A136008BD054A06491160EFE701F04E
:1004500081FB0C2303604FF0FF30F3E76C000020BA
:1004600000FC00206002002001230360014B0B60B0
:10047000704700BF040000202DE9F04385B004461A
:100480000F4643563BBB042528462146ABBE0546D6
:10049000384605B0BDE8F08314F901CB03F1100232
:1004A0006A4402F810CC0133AB42F5D310336B44ED
:1004B000002203F8102C4FF00408E9464046494654
:1004C000ABBE8046761B002EE2D03546102E28BFEC
:1004D00010250023E8E70E46F5E708B5FFF7CCFF47
:1004E00008BD00000FB400B583B004AB53F8042B73
:1004F00001938021074801F01FFB002804DC03B0B2
:100500005DF804EB04B0704701460248FFF7E5FFD1
:10051000F5E700BF78000020F8B504460D46174601
:100520001E462748FFF7DEFF21682648FFF7DAFF5F
:1005300061682548FFF7D6FFA1682448FFF7D2FF7E
:10054000E1682348FFF7CEFF21692248FFF7CAFF81
:1005500061692148FFF7C6FFA1692048FFF7C2FF84
:10056000E1691F48FFF7BEFF1E48FFF7BBFF2946A2
:100570001D48FFF7B7FF1D4CE16A1D48FFF7B2FFAA
:10058000216B1C48FFF7AEFFE16B1B48FFF7AAFF8A
:1005900015F0800F0AD115F4004F0CD11748FFF762
:1005A000A1FF06991648FFF79DFFF8BD394615488B
:1005B000FFF798FFEFE731461348FFF793FFEDE7AA
:1005C000BC240008CC240008DC240008EC2400082B
:1005D000FC2400080C2500081C2500082C25000818
:1005E0003C2500084C2500085825000800ED00E0D7
:1005F000682500087825000888250008B825000827
:10060000C025000898250008A825000883691A88D5
:100610008A4201D0002070470268033A012A01D9BA
:1006200000207047023383610120704708B500F055
:100630000DF8024A024B9A6008BD00BF0000000896
:1006400000ED00E008B500F009F808BD024B4FF0DE
:1006500000629A60704700BF00ED00E0224B9B688B
:1006600003F00C03042B14D0082B16D01BB11F4B26
:100670001F4A1A6002E01D4B1D4A1A601A4B9B6804
:10068000C3F303131B4AD15C184A1368CB401360B1
:100690007047164B184A1A60F0E7134B59685A68AE
:1006A00002F03F0211F4800F13D0134BB3FBF2F3AF
:1006B0000D4A5268C2F3881202FB03F30A4A5268D9
:1006C000C2F3014201325200B3FBF2F3074A136056
:1006D000D4E7074BB3FBF2F3034A5268C2F3881224
:1006E00002FB03F3EAE700BF003802400C000020E1
:1006F0000024F4000426000840787D0100B59646E9
:1007000000F17843A3F58043B3F5703F38D21D4B19
:10071000DB6813F4803FFAD11A4B1B69002B0BDB0B
:10072000184B1A6922F440721A611A6942F48072F5
:100730001A614FF0000C21E0124B134A5A6002F18B
:1007400088325A60ECE70F4A136943F001031361E2
:1007500031F81C3020F8023B0A4BDB6813F4803F71
:10076000FAD1084BDA6842F00102DA601A6922F025
:1007700001021A610CF1010C5FFA8CFCF445E2D322
:100780005DF804FB003C024023016745034620B9A5
:10079000A1F10D00C0B2022806D9012B05D0012B12
:1007A00018D0022B26D02BB17047C81EC0B201282A
:1007B000F5D8F9E7174B186849004FF0030C0CFA0D
:1007C00001FC20EA0C001860186802FA01F10143EC
:1007D00019607047104B186849004FF0030C0CFA71
:1007E00001FC20EA0C001860186802FA01F10143CC
:1007F00019607047094B186849004FF0030C0CFA58
:1008000001FC20EA0C00186018688A4002431A6054
:10081000CAE700BF00000240000402400008024096
:1008200030B4044620B9A1F10D00C0B2022806D9A7
:10083000012C06D0012C23D0022C3BD034B130BC8B
:100840007047C81EC0B20128F4D8F8E7264885686A
:100850004C004FF0030C0CFA04FC25EA0C058560F3
:10086000856803FA04F42C438460436801248C40B7
:1008700023EA0403436043688A401A434260DEE788
:100880001A4885684C004FF0030C0CFA04FC25EA6A
:100890000C058560856803FA04F42C438460436882
:1008A00001248C4023EA0403436043688A401A43CE
:1008B0004260C4E70E4884684D004FF0030C0CFA08
:1008C00005FC24EA0C0484608468AB402343836005
:1008D000436801248C4023EA0403436043688A4050
:1008E00013434360ABE700BF000002400004024036
:1008F00000080240034620B9A1F10D00C0B2022851
:1009000006D9012B05D0012B2BD0022B4CD02BB1BB
:100910007047C81EC0B20128F5D8F9E707290FD8DB
:10092000324B186A89004FF00F0C0CFA01FC20EAD8
:100930000C001862186A02FA01F10143196270474B
:100940002A4B586A083989004FF00F0C0CFA01FC49
:1009500020EA0C005862586A02FA01F10143596218
:10096000704707290FD8224B186A89004FF00F0CE7
:100970000CFA01FC20EA0C001862186A02FA01F174
:100980000143196270471A4B586A083989004FF0C1
:100990000F0C0CFA01FC20EA0C005862586A02FAAB
:1009A00001F101435962704707290FD8114B186AAA
:1009B00089004FF00F0C0CFA01FC20EA0C001862C1
:1009C000186A02FA01F1014319627047084B586A2C
:1009D000083989004FF00F0C0CFA01FC20EA0C00DA
:1009E0005862586A8A4002435A6291E70000024006
:1009F0000004024000080240034620B9A1F10D00A6
:100A0000C0B2022806D9012B05D0012B19D0022B28
:100A100028D02BB17047C81EC0B20128F5D8F9E71D
:100A20003AB1012AF6D1184843698A401343436119
:100A300070471548436901228A4023EA0203436153
:100A400070473AB1012AE5D1104843698A401343FF
:100A5000436170470D48436901228A4023EA02033B
:100A6000436170473AB1012AD4D1094843698A40A9
:100A70001343436170470648436901228A4023EAD1
:100A800002034361C6E700BF0000024000040240C9
:100A900000080240114B1A6822F480221A601A687A
:100AA00022F080721A601A6822F001021A601A6835
:100AB00042F480321A60094B1B6813F4003FFAD0ED
:100AC000064B9A6822F003029A609A6842F001028B
:100AD0009A601A6822F400221A60704700380240B7
:100AE0001F2920D803281ED8DFE800F002091017BC
:100AF0000D48036C01228A401343036470470A487F
:100B0000436C01228A401343436470470648036BD9
:100B100001228A401343036370470348436B012259
:100B20008A40134343637047003802404FF0E0238C
:100B3000C3F8080D70474FF0E02300221A61704798
:100B40004FF0E0231A6922F001021A6100225A6173
:100B50009A6170470000000010B50C4600F014FDCB
:100B60000DA3D3E9002300F089FD00F099FF4FF0B9
:100B7000E0235861002199611A6942F002021A616A
:100B8000074B19700CB1074B1C604FF0E022136942
:100B900043F00103136110BD00000000006AA8408B
:100BA000F8000020FC00002010B504464FF0E023C0
:100BB00058699B69C01A00F0E7FC0022034B00F063
:100BC00087FE00F06DFF206010BD00BF0000D93F20
:100BD00008B50A4B1B687BB198474FF0E0231B69AF
:100BE000074B1B7843B94FF0E0231A6922F0020249
:100BF0001A6100225A619A6108BD00BFFC00002002
:100C0000F80000200F4B20229A60DA6842F400427C
:100C1000DA60DA686FF30C32DA60DA686FF38A222E
:100C2000DA60DA686FF38612DA60DA686FF3451219
:100C3000DA601A6922F440521A611A691A610022B4
:100C40001A60704700100140002208E006494B601E
:100C5000054B1B6813F0400FFAD00132D2B2835615
:100C6000002BF3D1704700BF00100140054B1B68FB
:100C700013F0200F04D0034B5B6803700120704712
:100C80000020704700100140064BDA6842F008026D
:100C9000DA60DA6842F00402DA60DA6842F400529C
:100CA000DA6070470010014008B5024B1B6803B1C1
:100CB000984708BD0801002008B5024B1B6803B126
:100CC000984708BD0401002008B5024B1B6803B11A
:100CD000984708BD000100200246A0F13003D8B2B9
:100CE000092808D9A2F14103DBB2052B02D8373A13
:100CF000D0B27047002070472DE9F84F064690F9B2
:100D00000100C0B2FFF7E8FF824696F90200C0B2C8
:100D1000FFF7E2FF40EA0A1A5FFA8AFA96F903003F
:100D2000C0B2FFF7D9FF074696F90400C0B2FFF73B
:100D3000D3FF814696F90500C0B2FFF7CDFF054607
:100D400096F90600C0B2FFF7C7FF0346574A12687C
:100D500042EA073B4BEA092B4BEA051B4BEA000B27
:100D6000534A12782AB1534AC2F800B0504A0021BF
:100D7000117049EA07195AFA89F943EA0513DBB2F7
:100D800053FA89F95FFA89F9002532E0AF0007F1DB
:100D90000903F056C0B2FFF79FFF804607F10A0330
:100DA000F056C0B2FFF798FF04460B37F057C0B2B9
:100DB000FFF792FF0746EB1C16F92300C0B2FFF7BE
:100DC0008BFF030243EA07331BB243EA08131BB24B
:100DD0002343394A22F8153044EA081459FA84F4B6
:100DE00040EA0710C0B250FA84F45FFA84F9013582
:100DF000EDB2B5EB5A0FC9D31AF0010F3FD00AF18B
:100E0000010A5FFA8AFAAF0007F10903F056C0B28F
:100E1000FFF762FF804607F10A03F056C0B2FFF702
:100E20005BFF04463020FFF757FF030243EA00331D
:100E30001BB243EA08131BB223431F4A22F81530A2
:100E400044EA081459FA84F45FFA84F90B37F0572E
:100E5000C0B2FFF741FF0446033516F92500C0B2C2
:100E6000FFF73AFF034643EA0413DBB2C9F1000976
:100E70005FFA89F94B4511D00120BDE8F88FAD002C
:100E800005F10903F056C0B2FFF726FF04460A3504
:100E90007057C0B2FFF720FF0346E4E74FEA5A025B
:100EA00005495846FFF72AFC0020E6E71401002018
:100EB00010000020100100201C0100202DE9F04747
:100EC000054690F90100C0B2FFF706FF044695F908
:100ED0000200C0B2FFF700FF40EA04105FFA80FA98
:100EE00095F90300C0B2FFF7F7FE064695F9040036
:100EF000C0B2FFF7F1FE044695F90500C0B2FFF756
:100F0000EBFE814695F90600C0B2FFF7E5FE270229
:100F100047EA063747EA09170743DFF8A480C8F80D
:100F2000007044EA06165AFA86F640EA0910C0B282
:100F300050FA86F6F6B20436F6B295F90900C0B258
:100F4000FFF7CAFE824695F90A00C0B2FFF7C4FE59
:100F5000044695F90B00C0B2FFF7BEFE814695F935
:100F60000C00C0B2FFF7B8FE220642EA0A7242EA5B
:100F7000095242EA00421743C8F8007044EA0A14D2
:100F800056FA84F440EA0913DBB253FA84F4E4B26B
:100F90006442E4B295F90D00C0B2FFF79DFE06462B
:100FA00095F90E00C0B2FFF797FE40EA0610C0B2F6
:100FB000844202D00120BDE8F08700BF0020FAE79C
:100FC000140100202DE9F047054690F90100C0B258
:100FD000FFF782FE804695F90200C0B2FFF77CFE63
:100FE00040EA08185FFA88F808F105085FFA88F8FF
:100FF00095F90900C0B2FFF76FFE064695F90A00A1
:10100000C0B2FFF769FE044695F90B00C0B2FFF7C6
:1010100063FE824695F90C00C0B2FFF75DFE27061D
:1010200047EA067747EA0A5747EA0047DFF8A490FD
:10103000D9F800201743C9F8007044EA061658FA98
:1010400086F640EA0A13DBB253FA86F6F6B295F951
:101050000D00C0B2FFF740FE824695F90E00C0B207
:10106000FFF73AFE044695F90F00C0B2FFF734FED1
:10107000804695F91000C0B2FFF72EFE220242EA28
:101080000A3242EA081202431743C9F8007044EAE0
:101090000A1456FA84F440EA0813DBB253FA84F4D3
:1010A000E4B26442E4B295F91100C0B2FFF714FE55
:1010B000064695F91200C0B2FFF70EFE40EA061090
:1010C000C0B2844202D00120BDE8F08700BF0020FA
:1010D000FAE700BF0C01002008B590F90830303B5A
:1010E000052B1CD8DFE803F003091B1B0618FFF7CC
:1010F00003FE15E0FFF7E2FE12E090F90B300A2B39
:1011000002D0FFF7F9FD0BE00648FFF79DFD064B07
:101110001B689847002003E0FFF754FF00E0002021
:1011200008BD00BF142600081801002018B1034AAA
:101130001060002070470120704700BF1801002098
:1011400010B582B00023019301A8FFF72DFD019B8C
:10115000A3B11B4B5B68B3F1FF3F1DD0194B0122BC
:101160001A70194C16482060FFF7E0FC236843F022
:1011700004031A68154B1A6002B010BD114B01220E
:101180001A70114C2068FFF7D1FC236843F0040368
:101190001A680E4B1A60EFE70D4B5B68B3F1FF3F27
:1011A000EAD0084B01221A70074C09482060FFF76B
:1011B000BDFC236843F004031A68044B1A60DBE7A4
:1011C00000400008E801002010010020E401002098
:1011D0000000020810B504210120FFF781FC002166
:1011E0000220FFF77DFC01210220FFF779FCFFF7C9
:1011F00051FC022209210020FFF7C8FA02220A212D
:101200000020FFF7C3FA072209210020FFF772FB35
:1012100007220A210020FFF76DFB01220221002096
:10122000FFF7B4FA0123002202211046FFF7F8FA73
:10123000012202210020FFF7DFFBFFF7E3FCFFF7AD
:1012400023FDFFF778FC264C21460A20FFF784FC9B
:101250002046FFF76BFF2348FFF7F6FC224B1B7875
:10126000002B34D1214B1B7821481844FFF7FEFC9A
:101270000128F3D11D4B1B78DBB21D4AD3560A2B34
:1012800005D01A4A13780133DBB21370E6E7104633
:10129000FFF722FF0446174B1B78DBB2012B09D066
:1012A00074B1012CDAD11448FFF7CEFC0F4B0022A9
:1012B0001A70D3E7FFF744FC0E4B00221A70EFE7D9
:1012C0000E48FFF7C1FC094B00221A70C6E7002246
:1012D00002211046FFF790FB094B1B68984710BD91
:1012E0004111000818260008E8010020E90100204B
:1012F000EC010020110000201C2600081426000824
:10130000E401002081F0004102E000BF83F00043CF
:1013100030B54FEA41044FEA430594EA050F08BF90
:1013200090EA020F1FBF54EA000C55EA020C7FEA54
:10133000645C7FEA655C00F0E2804FEA5454D4EBD1
:101340005555B8BF6D420CDD2C4480EA020281EA9B
:10135000030382EA000083EA010180EA020281EAD3
:101360000303362D88BF30BD11F0004F4FEA013125
:101370004FF4801C4CEA113102D0404261EB410134
:1013800013F0004F4FEA03334CEA133302D05242BA
:1013900063EB430394EA050F00F0A780A4F1010476
:1013A000D5F1200E0DDB02FA0EFC22FA05F28018B0
:1013B00041F1000103FA0EF2801843FA05F3594196
:1013C0000EE0A5F120050EF1200E012A03FA0EFC15
:1013D00028BF4CF0020C43FA05F3C01851EBE3713F
:1013E00001F0004507D54FF0000EDCF1000C7EEB5C
:1013F00000006EEB0101B1F5801F1BD3B1F5001F9A
:101400000CD349085FEA30004FEA3C0C04F10104B8
:101410004FEA445212F5800F80F09A80BCF1004FE1
:1014200008BF5FEA500C50F1000041EB045141EA63
:10143000050130BD5FEA4C0C404141EB0101013C2C
:1014400028BFB1F5801FE9D291F0000F04BF01461B
:101450000020B1FA81F308BF2033A3F10B03B3F1ED
:1014600020020CDA0C3208DD02F1140CC2F10C027D
:1014700001FA0CF021FA02F10CE002F11402D8BFDB
:10148000C2F1200C01FA02F120FA0CFCDCBF41EAA7
:101490000C019040E41AA2BF01EB0451294330BD76
:1014A0006FEA04041F3C1CDA0C340EDC04F1140453
:1014B000C4F1200220FA04F001FA02F340EA03002A
:1014C00021FA04F345EA030130BDC4F10C04C4F170
:1014D000200220FA02F001FA04F340EA0300294650
:1014E00030BD21FA04F0294630BD94F0000F83F49A
:1014F000801306BF81F480110134013D4EE77FEA7D
:10150000645C18BF7FEA655C29D094EA050F08BFC8
:1015100090EA020F05D054EA000C04BF19461046A9
:1015200030BD91EA030F1EBF0021002030BD5FEAED
:10153000545C05D14000494128BF41F0004130BD15
:1015400014F580043CBF01F5801130BD01F0004569
:1015500045F0FE4141F470014FF0000030BD7FEADC
:10156000645C1ABF194610467FEA655C1CBF0B46D7
:10157000024650EA013406BF52EA033591EA030FEE
:1015800041F4002130BD00BF90F0000F04BF0021E6
:10159000704730B54FF4806404F132044FF0000519
:1015A0004FF0000150E700BF90F0000F04BF002192
:1015B000704730B54FF4806404F1320410F00045F8
:1015C00048BF40424FF000013EE700BF42004FEAF3
:1015D000E2014FEA31014FEA02701FBF12F07F4370
:1015E00093F07F4F81F06051704732F07F4208BF27
:1015F000704793F07F4F04BF41F40021704730B52E
:101600004FF4607401F0004521F000411CE700BF79
:1016100050EA010208BF704730B54FF000050AE0FC
:1016200050EA010208BF704730B511F0004502D5FD
:10163000404261EB41014FF4806404F132045FEAFF
:10164000915C3FF4D8AE4FF003025FEADC0C18BFA8
:1016500003325FEADC0C18BF033202EBDC02C2F19A
:10166000200300FA03FC20FA02F001FA03FE40EA2C
:101670000E0021FA02F11444BDE600BF70B54FF030
:10168000FF0C4CF4E06C1CEA11541DBF1CEA13550E
:1016900094EA0C0F95EA0C0F00F0DEF82C4481EA76
:1016A000030621EA4C5123EA4C5350EA013518BF96
:1016B00052EA033541F4801143F4801338D0A0FB83
:1016C00002CE4FF00005E1FB02E506F00042E0FB30
:1016D00003E54FF00006E1FB03569CF0000F18BF36
:1016E0004EF0010EA4F1FF04B6F5007F64F54074DE
:1016F00004D25FEA4E0E6D4146EB060642EAC62171
:1017000041EA55514FEAC52040EA5E504FEACE2EDD
:10171000B4F1FD0C88BFBCF5E06F1ED8BEF1004FE0
:1017200008BF5FEA500E50F1000041EB045170BD5C
:1017300006F0004646EA010140EA020081EA0301A0
:10174000B4EB5C04C2BFD4EB0C0541EA045170BD9C
:1017500041F480114FF0000E013C00F3AB8014F116
:10176000360FDEBF002001F0004170BDC4F100045F
:10177000203C35DA0C341BDC04F11404C4F12005E0
:1017800000FA05F320FA04F001FA05F240EA02003B
:1017900001F0004221F0004110EBD37021FA04F671
:1017A00042EB06015EEA430E08BF20EAD37070BD2B
:1017B000C4F10C04C4F1200500FA04F320FA05F08A
:1017C00001FA04F240EA020001F0004110EBD3708C
:1017D00041F100015EEA430E08BF20EAD37070BDFC
:1017E000C4F1200500FA05F24EEA020E20FA04F3D5
:1017F00001FA05F243EA020321FA04F001F0004184
:1018000021FA04F220EA020000EBD3705EEA430EF4
:1018100008BF20EAD37070BD94F0000F0FD101F023
:101820000046400041EB010111F4801F08BF013C5C
:10183000F7D041EA060195F0000F18BF704703F09A
:101840000046520043EB030313F4801F08BF013D21
:10185000F7D043EA0603704794EA0C0F0CEA1355DD
:1018600018BF95EA0C0F0CD050EA410618BF52EA97
:101870004306D1D181EA030101F000414FF000009D
:1018800070BD50EA410606BF1046194652EA4306AB
:1018900019D094EA0C0F02D150EA013613D195EA1F
:1018A0000C0F05D152EA03361CBF104619460AD167
:1018B00081EA030101F0004141F0FE4141F4700171
:1018C0004FF0000070BD41F0FE4141F4780170BD61
:1018D00070B54FF0FF0C4CF4E06C1CEA11541DBFC6
:1018E0001CEA135594EA0C0F95EA0C0F00F0A7F8C8
:1018F000A4EB050481EA030E52EA03354FEA0131F5
:1019000000F088804FEA03334FF0805545EA131307
:1019100043EA12634FEA022245EA111545EA1065CF
:101920004FEA00260EF000419D4208BF964244F166
:10193000FD0404F5407402D25B084FEA3202B61A85
:1019400065EB03055B084FEA32024FF480104FF459
:10195000002CB6EB020E75EB030E22BFB61A7546CD
:1019600040EA0C005B084FEA3202B6EB020E75EB60
:10197000030E22BFB61A754640EA5C005B084FEAC8
:101980003202B6EB020E75EB030E22BFB61A754695
:1019900040EA9C005B084FEA3202B6EB020E75EBA0
:1019A000030E22BFB61A754640EADC0055EA060E61
:1019B00018D04FEA051545EA16754FEA06164FEAA4
:1019C000C30343EA52734FEAC2025FEA1C1CC0D150
:1019D00011F4801F0BD141EA00014FF000004FF0DD
:1019E000004CB6E711F4801F04BF01430020B4F19E
:1019F000FD0C88BFBCF5E06F3FF6AFAEB5EB030C56
:101A000004BFB6EB020C5FEA500C50F1000041EB52
:101A1000045170BD0EF0004E4EEA113114EB5C041F
:101A2000C2BFD4EB0C0541EA045170BD41F48011F2
:101A30004FF0000E013C90E645EA060E8DE60CEAFA
:101A4000135594EA0C0F08BF95EA0C0F3FF43BAF17
:101A500094EA0C0F0AD150EA01347FF434AF95EACE
:101A60000C0F7FF425AF104619462CE795EA0C0FB2
:101A700006D152EA03353FF4FDAE1046194622E77F
:101A800050EA410618BF52EA43067FF4C5AE50EA59
:101A900041047FF40DAF52EA43057FF4EBAE12E749
:101AA0004A0011D212F5001211D20DD56FF47873DD
:101AB000B3EB62520ED44FEAC12343F0004343EA32
:101AC000505323FA02F070474FF00000704750EA7D
:101AD000013002D14FF0FF3070474FF000007047E7
:101AE00030B51446002C9BB005461A4605DA8B2308
:101AF00003604FF0FF301BB030BD4FF40273ADF800
:101B00000C3014BF04F1FF332346029305934FF6C4
:101B1000FF7300910491ADF80E3069461E9B00F0F2
:101B20007BF8431CBCBF8B232B60002CE3D0009BB5
:101B300000221A70DFE7000007B5009313460A463B
:101B4000014603480068FFF7CBFF03B05DF804FBD4
:101B500014000020014B1868704700BF14000020DB
:101B60002DE9F0478E681F46BE420B6882460C4640
:101B700090462DD8B1F90C2012F4906F26D06569EB
:101B8000096905EB4505A3EB010905EBD5757B1C40
:101B90004B446D109D4238BF1D46530527D529463D
:101BA00000F0B8FB064660B321694A4600F038FBF6
:101BB000A38923F4906343F08003A38126616561C8
:101BC0004E44A5EB09052660A5603E46BE4200D9FD
:101BD0003E4620683246414600F0B4FAA3689B1B9B
:101BE000A3602368334423600020BDE8F0872A46C1
:101BF00000F01CFC06460028E0D12169504600F0A8
:101C00001DFB0C23CAF80030A38943F04003A381D5
:101C10004FF0FF30E9E700002DE9F04F98468B893F
:101C20001B069DB007460D46144610D50B6973B9C7
:101C3000402100F06FFB2860286130B90C233B6025
:101C40004FF0FF301DB0BDE8F08F40236B610023E3
:101C5000099320238DF82930CDF80C803023DFF84C
:101C60009C818DF82A304FF0010923469A4613F8DB
:101C7000012B0AB1252AF9D1BAEB040B0BD05B4634
:101C8000224629463846FFF76BFF013000F0A78057
:101C9000099A5A4409929AF80030002B00F09F806C
:101CA00000234FF0FF32CDE905230AF1010A049326
:101CB00007938DF853301A935446052214F8011BEC
:101CC0004E4800F05DFA049AD8B9D00644BF2023EC
:101CD0008DF85330110744BF2B238DF853309AF8F9
:101CE00000302A2B15D0079A544600204FF00A0CDA
:101CF000214611F8013B303B092B4BD9B0B107927B
:101D000014E0A0EB080309FA03F313430493A2467B
:101D1000D2E7039B191D1B680391002BBBBF5B42DD
:101D200042F0020207930793B8BF049223782E2B48
:101D30000AD163782A2B32D1039B1A1D1B680392A8
:101D400043EAE37302340593DFF8B4A02178032259
:101D5000504600F015FA38B1049BA0EB0A0040226F
:101D6000824013430134049314F8011B25488DF875
:101D70002810062200F004FA002836D0224B1BBBA4
:101D8000039B073323F0070308330393099B334472
:101D900009936AE70CFB02320C460120A8E70023F6
:101DA0000134059319464FF00A0C204610F8012B18
:101DB000303A092A03D9002BC6D00591C4E70CFBA1
:101DC000012104460123F0E703AB00932A460F4BA1
:101DD00004A93846AFF30080421C0646D6D1AB8931
:101DE0005B063FF52DAF09982CE703AB00932A461D
:101DF000064B04A9384600F079F8EDE71E260008E6
:101E0000242600082826000800000000611B0008A6
:101E10002DE9F047164698468A680B69DDF8209050
:101E20009342B8BF1346336091F8432007460C46EF
:101E30000AB1013333602368990642BF3368023325
:101E40003360256815F0060506D104F1190AE36828
:101E500032689B1AAB4226DC94F843302268003B80
:101E600018BF012392062BD404F1430241463846A1
:101E7000C84701301ED02368226903F00603042BF3
:101E800002BFE5683368ED1AA3680CBF25EAE57563
:101E900000259342C4BF9B1AED1800261A34B542A0
:101EA0001AD1002008E00123524641463846C8476F
:101EB000013003D14FF0FF30BDE8F0870135C6E7B0
:101EC000E1185A1C302081F84300224494F8451050
:101ED00082F843100233C7E70123224641463846C1
:101EE000C8470130E6D00136D9E700002DE9FF47A9
:101EF0000F7E0C9E782F914680460C469A4601F143
:101F0000430207D8622F0AD8002F00F0DD80582F37
:101F100000F0C38004F1420684F842703AE0A7F171
:101F20006303152BF6D801A151F823F0851F000893
:101F3000991F0008151F0008151F0008151F00082D
:101F4000151F0008991F0008151F0008151F00081D
:101F5000151F0008151F0008AF20000827200008E3
:101F600067200008151F0008151F0008D120000871
:101F7000151F000827200008151F0008151F00085E
:101F80006F20000833681A1D1B68326004F1420696
:101F900084F842300123A8E031682368081D3060CE
:101FA0001E0601D50D6803E05D06FBD5B1F90050B2
:101FB0006168002D78DA2D20002984F84300A160A3
:101FC0002DDA5E486D420A231646B5FBF3F103FB9A
:101FD0001157C75D06F8017D2F46BB420D46F4D967
:101FE000082B0BD12368DF0708D523696168994264
:101FF000DEBF302306F8013C06F1FF36921B22615A
:10200000CDF800A04B4603AA21464046FFF700FF4B
:1020100001306FD14FF0FF3004B0BDE8F08723F0FE
:1020200004032360CDE721683368080653F8045B96
:1020300002D4490648BFADB26F2F4048336014BF89
:102040000A230823002184F843106668A660002E46
:10205000BADB216821F004012160002DB4D1002EEB
:10206000B2D11646BCE7236843F02003236034480E
:10207000782784F84570236831681F0651F8045B9F
:1020800002D45F0648BFADB23160D90744BF43F008
:10209000200323601DB11023D4E72848E9E7236813
:1020A00023F020032360F6E724480A23CDE73368B2
:1020B00025686169181D30602E061B6801D51960FE
:1020C00002E06806FBD5198000232361164697E7D6
:1020D00033681A1D32601E6862680021304600F0C5
:1020E0004FF808B1801B606063682361002384F8A7
:1020F000433085E72369324649464046D0470130A0
:1021000088D023689B0714D4E068039B9842B8BF2B
:10211000184681E70123324649464046D047013000
:102120003FF478AF0135E36803995B1AAB42F1DC09
:10213000EAE7002504F11906F5E700BF2F2600089D
:1021400040260008884210B501EB020402D98442FF
:10215000234607D8431EA14208D011F8012B03F8EB
:10216000012FF8E7024401468A4200D110BD13F85E
:10217000014D02F8014DF7E70000000000000000EB
:1021800001F0FF01102A2BDB10F0070F08D010F828
:10219000013B013A8B422DD010F0070F42B3F6D12C
:1021A000F0B441EA012141EA014122F007047FF045
:1021B00000070023F0E80256083C85EA010586EA9C
:1021C000010685FA47F5A3FA87F586FA47F6A5FAD8
:1021D00087F68EB9EED1F0BC01F0FF0102F00702E4
:1021E00032B110F8013B013A83EA010313B1F8D18F
:1021F0000020704701387047002D06BF3546033870
:10220000073815F0010F07D1013015F4807F02BFA8
:10221000013015F4C03F0130F0BC0138704700BFF9
:102220000A44914200F1FF3300D1704710B511F814
:10223000014B03F8014F9142F9D110BD38B5054665
:10224000002941D051F8043C0C1F002BB8BFE41802
:1022500000F0E0F81D4A136833B963601460284643
:10226000BDE8384000F0DCB8A34208D92068211846
:102270008B4201BF19685B6809182160EDE71A46B7
:102280005B680BB1A342FAD911685018A0420BD178
:1022900020680144501883421160E0D118685B68DF
:1022A000536008441060DAE702D90C232B60D6E7AC
:1022B000206821188B4204BF19685B68636004BF03
:1022C000091821605460CAE738BD00BF54020020DD
:1022D00070B50F4E0C463168054611B900F0D4F8C0
:1022E00030602146284600F0CFF8431C03D14FF060
:1022F000FF34204670BDC41C24F00304A042F8D073
:10230000211A284600F0C0F80130F2D1EFE700BFF3
:10231000500200202DE9F843CD1C25F003050835B7
:102320000C2D38BF0C25002D064601DBA94204D92F
:102330000C2333600020BDE8F883DFF8D48000F080
:1023400069F8D8F800301C4644BB29463046FFF7F0
:10235000BFFF431C044658D1D8F800402746002F41
:1023600043D1002C4BD023683946304604EB030997
:1023700000F08AF8814542D121686D1A294630461D
:10238000FFF7A6FF01303AD023682B442360D8F82A
:1023900000305A6862BBC8F800700FE02268521B18
:1023A00020D40B2A17D96119A342256018BF5960A0
:1023B000636808BFC8F8001062514B60304600F0F7
:1023C0002FF804F10B00231D20F00700C21A1CBFD8
:1023D0001B1AA350AFE76268A3420CBFC8F80020E5
:1023E0005A60EBE723466468AEE73C467F68B6E791
:1023F0001A465B68A342FBD100235360DEE70C233F
:102400003360304600F00CF894E70560D6E700BF73
:1024100054020020014800F047B800BF58020020D5
:10242000014800F042B800BF580200202DE9F041F9
:10243000804615460C4621B9BDE8F0411146FFF72C
:1024400069BF2AB9FFF7FAFE00242046BDE8F081F3
:1024500000F02CF88542064602D8B5EB500FF4D8B0
:1024600029464046FFF756FF07460028ECD0B54204
:102470002A46214628BF3246FFF7D2FE2146404673
:10248000FFF7DCFE3C46E0E738B5064D0023044686
:1024900008462B60FDF7C6FF431C02D12B6803B131
:1024A000236038BD740000207047704751F8043C29
:1024B000181F002BBCBF0B58C018704753746163C2
:1024C0006B206672616D653A0A0000002052302070
:1024D0003D2020253038580A0000000020523120CD
:1024E0003D2020253038580A0000000020523220BC
:1024F0003D2020253038580A0000000020523320AB
:102500003D2020253038580A00000000205231328A
:10251000203D20253038580A00000000204C522071
:102520003D2020253038580A00000000205043206C
:102530003D2020253038580A00000000205053521A
:10254000203D20253038580A000000004653522F05
:102550004641523A0A0000002043465352203D2093
:1025600020253038580A00002048465352203D208C
:1025700020253038580A00002044465352203D2080
:1025800020253038580A00002041465352203D2073
:1025900020253038580A0000204D4D464152203D3C
:1025A00020253038580A00002042464152203D2064
:1025B00020253038580A00004D6973630A00000076
:1025C000204C522F4558435F52455455524E3D20A2
:1025D000253038580A0000005B4861726446617516
:1025E0006C745D0A000000005B4275734661756C97
:1025F000745D0A005B55736167654661756C745D57
:102600000A000000000000000000000001020304B6
:10261000060708094B000000420000004E00232D71
:10262000302B2000686C4C006566674546470030DB
:102630003132333435363738394142434445460028
:102640003031323334353637383961626364656628
:10265000000000001000000000000000017A52009D
:10266000027C0E011B0C0D00100000001800000081
:10267000000000001000000000000000100000003A
:1026800000000000017A5200027C0E011B0C0D00BC
:102690003800000018000000E8FAFFFF9E0000006C
:1026A00000510E1084048503860287015BC7C6C5EE
:1026B000C40E004C0A420B0A420B0E108404850320
:0C26C0008602870151C7C6C5C40E000089
:0826CC00B4FAFF7F01000000D9
:1026D4007856341270000020000000000024F4003A
:1026E4000101FFFF180000200000000000000000AE
:1026F40068000000D000000000000000000000009E
:1027040000000000000000000000000000000000C5
:1027140000000000000000000000000000000000B5
:1027240000000000000000000000000000000000A5
:08273400000000003254769809
:040000050800019559
:00000001FF
