:020000040802F0
:1000000000000120C5020208CB020208CF0202084C
:1000100041030208450302088D03020800000000A6
:10002000000000000000000000000000D5030208EE
:10003000D903020800000000DD030208D90C020801
:10004000F1030208F1030208F1030208F1030208B8
:10005000F1030208F1030208BD070208DD070208E8
:10006000FD0702081D0802083D080208F103020806
:10007000F1030208F1030208F1030208F103020888
:10008000F1030208F1030208F10302080000000076
:100090000000000000000000000000005D080208F1
:1000A000F1030208F1030208F1030208F103020858
:1000B000F1030208F1030208F1030208F103020848
:1000C000F1030208F1030208F1030208F103020838
:1000D000F1030208F1030208F10302080000000026
:1000E00091080208F1030208F10302080000000071
:1000F000000000000000000000000000F103020802
:1001000000000000F1030208F1030208F1030208F5
:1001100000000000000000000000000000000000DF
:10012000F1030208F1030208F1030208F1030208D7
:10013000F1030208000000000000000000000000C1
:10014000000000000000000000000000F1030208B1
:10015000F1030208F1030208F1030208F1030208A7
:10016000F1030208F1030208000000000000000093
:10017000000000000000000000000000000000007F
:1001800000000000F1030208000000000000000071
:10019000F103020800B583B000F048FA384B394A41
:1001A0001360394A1360394906E052F8041B43F8DA
:1001B000041B9842F9D86146354B994205D20A682A
:1001C0004B6801F10C0C8868F3E72E4B1A68314B31
:1001D0009A4200D0FEE72C4B1A682F4B9A42F9D175
:1001E000274B2E4A13602E4A13602E4A00E0024627
:1001F0002D4B9A4209D2104650F8083B516899425B
:10020000F5D9002243F8042BF9E7244B1B6813B9F6
:10021000234B1B6803B1FEE700F014FA694601A8FE
:1002200000F022F9214C224BE41AA410002504E02E
:100230001F4B53F8253098470135AC42F8DC1D4C74
:100240001D4BE41AA410002504E01B4B53F8253085
:1002500098470135AC42F8DC0099019800F06EFD3A
:100260000546164C164BE41AA41004E0013C144B4E
:1002700053F824309847002CF8DC284600F0D0F8DA
:10028000BABADECA0000002064000020F4030208AD
:100290000C04020878563412325476986800002014
:1002A000500100200C0402081C0402081C0402086F
:1002B0001C0402081C0402081C0402081C04020896
:1002C0001C04020808B5FFF765FF00BEFEE71EF03C
:1002D000040F0CBFEFF30880EFF309807146414A29
:1002E00010472DE9F04182B004460D46124B5F6B7A
:1002F000D3F838809E6A1B6B13F0020F03D00E4BAD
:10030000DB6A002B0BDB0D4800F0ECF80095434650
:100310003A463146204600F0FFF800BEFEE74BF6B5
:10032000AB6100F073F90028EDD0034B4FF00042B1
:10033000DA6202B0BDE8F08100ED00E0F81E0208CC
:1003400000BEFEE71EF0040F0CBFEFF30880EFF3D2
:1003500009807146244A10472DE9F04182B00446D5
:100360000D46084B5F6BD3F838809E6A064800F054
:10037000B9F8009543463A463146204600F0CCF89D
:1003800000BEFEE700ED00E0081F02081EF0040FAB
:100390000CBFEFF30880EFF309807146134A104752
:1003A0002DE9F04182B004460D46084B5F6BD3F84F
:1003B00038809E6A064800F095F8009543463A4614
:1003C0003146204600F0A8F800BEFEE700ED00E050
:1003D000141F020800BEFEE700BEFEE700BEFEE7F7
:1003E00070470000E302020859030208A103020853
:0403F00000BEFEE766
:1003F400E81F02080000002068000020E81F02082F
:1004040000000010000000106800002054010020CB
:080414000000001000000010C0
:10042000FEE7000008B503460C4A12685AB10B4AB1
:100430001068033323F003030344094A934206D8A8
:10044000064A136008BD054A06491160EFE701F04E
:1004500013F80C2303604FF0FF30F3E76C0000202B
:1004600000FC00205401002001230360014B0B60BD
:10047000704700BF040000202DE9F04385B004461A
:100480000F4643563BBB042528462146ABBE0546D6
:10049000384605B0BDE8F08314F901CB03F1100232
:1004A0006A4402F810CC0133AB42F5D310336B44ED
:1004B000002203F8102C4FF00408E9464046494654
:1004C000ABBE8046761B002EE2D03546102E28BFEC
:1004D00010250023E8E70E46F5E708B5FFF7CCFF47
:1004E00008BD00000FB400B583B004AB53F8042B73
:1004F00001938021074800F0B1FF002804DC03B01D
:100500005DF804EB04B0704701460248FFF7E5FFD1
:10051000F5E700BF78000020F8B504460D46174601
:100520001E462748FFF7DEFF21682648FFF7DAFF5F
:1005300061682548FFF7D6FFA1682448FFF7D2FF7E
:10054000E1682348FFF7CEFF21692248FFF7CAFF81
:1005500061692148FFF7C6FFA1692048FFF7C2FF84
:10056000E1691F48FFF7BEFF1E48FFF7BBFF2946A2
:100570001D48FFF7B7FF1D4CE16A1D48FFF7B2FFAA
:10058000216B1C48FFF7AEFFE16B1B48FFF7AAFF8A
:1005900015F0800F0AD115F4004F0CD11748FFF762
:1005A000A1FF06991648FFF79DFFF8BD394615488B
:1005B000FFF798FFEFE731461348FFF793FFEDE7AA
:1005C000DC1D0208EC1D0208FC1D02080C1E0208BE
:1005D0001C1E02082C1E02083C1E02084C1E0208AB
:1005E0005C1E02086C1E0208781E020800ED00E086
:1005F000881E0208981E0208A81E0208D81E0208BB
:10060000E01E0208B81E0208C81E020883691A8884
:100610008A4201D0002070470268033A012A01D9BA
:1006200000207047023383610120704708B500F055
:100630000DF8024A024B9A6008BD00BF0000020894
:1006400000ED00E008B500F009F808BD024B4FF0DE
:1006500000629A60704700BF00ED00E0224B9B688B
:1006600003F00C03042B14D0082B16D01BB11F4B26
:100670001F4A1A6002E01D4B1D4A1A601A4B9B6804
:10068000C3F303131B4AD15C184A1368CB401360B1
:100690007047164B184A1A60F0E7134B59685A68AE
:1006A00002F03F0211F4800F13D0134BB3FBF2F3AF
:1006B0000D4A5268C2F3881202FB03F30A4A5268D9
:1006C000C2F3014201325200B3FBF2F3074A136056
:1006D000D4E7074BB3FBF2F3034A5268C2F3881224
:1006E00002FB03F3EAE700BF003802400C000020E1
:1006F0000024F400241F020840787D0110B48B0808
:100700000B4A023352F8234001F0030189004FF0F5
:100710000F0C0CFA01FC24EA0C0442F8234052F8B6
:1007200023408840044342F8234010BC704700BF78
:1007300000380140012908D031B907490B6801226E
:10074000824023EA02030B60704703490B680122D1
:10075000824013430B607047003C014051B9124B7B
:10076000D9680122824021EA0201D96099680A43CE
:100770009A607047012902D002290BD070470A4BBA
:1007800099680122824021EA02019960D9680A43EE
:10079000DA607047044A91680123834019439160ED
:1007A000D1680B43D360E9E7003C014011B1024A34
:1007B00042F82010704700BFF800002008B5054B34
:1007C0001B6803B19847044A536943F0010353611E
:1007D00008BD00BFF8000020003C014008B5054BF3
:1007E0005B6803B19847044A536943F002035361BD
:1007F00008BD00BFF8000020003C014008B5054BD3
:100800009B6803B19847044A536943F0040353615A
:1008100008BD00BFF8000020003C014008B5054BB2
:10082000DB6803B19847044A536943F008035361F6
:1008300008BD00BFF8000020003C014008B5054B92
:100840001B6903B19847044A536943F0100353618D
:1008500008BD00BFF8000020003C014038B5052469
:1008600007E009494B690122AA4013434B61013457
:10087000E4B2092C07D82546044B53F82430002B4A
:10088000EFD09847EDE738BD003C0140F80000206C
:1008900038B50A2408E0984708494B690122AA4064
:1008A00013434B610134E4B20F2C06D82546044BA8
:1008B00053F82430002BEED1EEE738BD003C014068
:1008C000F8000020431EDBB2042B27D8174BDB684F
:1008D00013F4803FFAD1154B1B69002B1FDB134B20
:1008E0001A6922F078021A611A6942EAC0021A6192
:1008F0001A6942F002021A611A6942F480321A61DE
:100900000A4BDB6813F4803FFAD1084BDA6842F0F7
:100910000102DA601A6922F002021A617047034B81
:10092000034A5A6002F188325A60D8E7003C02401C
:1009300023016745034620B9A1F10D00C0B202288A
:1009400006D9012B05D0012B18D0022B26D02BB1B4
:100950007047C81EC0B20128F5D8F9E7174B1868D0
:1009600049004FF0030C0CFA01FC20EA0C0018605F
:10097000186802FA01F1014319607047104B1868BA
:1009800049004FF0030C0CFA01FC20EA0C0018603F
:10099000186802FA01F1014319607047094B1868A1
:1009A00049004FF0030C0CFA01FC20EA0C0018601F
:1009B00018688A4002431A60CAE700BF000002407C
:1009C000000402400008024010B4044620B9A1F11E
:1009D0000D00C0B2022806D9012C06D0012C23D06C
:1009E000022C3BD034B110BC7047C81EC0B20128E5
:1009F000F4D8F8E7264844684FF0010C0CFA01FCE3
:100A000024EA0C04446044688A40224342608268BD
:100A1000490003248C4022EA04028260826803FABF
:100A200001F10A438260DEE71A4844684FF0010C86
:100A30000CFA01FC24EA0C04446044688A40224316
:100A400042608268490003248C4022EA04028260EA
:100A5000826803FA01F10A438260C4E70E484468E1
:100A60004FF0010C0CFA01FC24EA0C0444604468C9
:100A70008A40224342608268490003248C4022EA73
:100A80000402826082688B4013438360ABE700BF3F
:100A9000000002400004024000080240034620B962
:100AA000A1F10D00C0B2022806D9012B05D0012BFF
:100AB00018D0022B26D02BB17047C81EC0B2012817
:100AC000F5D8F9E7174BD86849004FF0030C0CFA3A
:100AD00001FC20EA0C00D860D86802FA01F1014359
:100AE000D9607047104BD86849004FF0030C0CFADE
:100AF00001FC20EA0C00D860D86802FA01F1014339
:100B0000D9607047094BD86849004FF0030C0CFAC4
:100B100001FC20EA0C00D860D8688A400243DA6001
:100B2000CAE700BF00000240000402400008024083
:100B3000034620B9A1F10D00C0B2022806D9012B4D
:100B400005D0012B16D0022B22D02BB17047C81E26
:100B5000C0B20128F5D8F9E7144B58694FF0010CE1
:100B60000CFA01FC20EA0C00586158698A400243E3
:100B70005A6170470E4B58694FF0010C0CFA01FC9A
:100B800020EA0C00586158698A4002435A61704754
:100B9000084B58694FF0010C0CFA01FC20EA0C00DC
:100BA000586158698A4002435A61CFE70000024009
:100BB00000040240000802404FEA501C054951F869
:100BC0002C3000F01F0001228240134341F82C30EA
:100BD000704700BF00E100E0114B1A6822F4802248
:100BE0001A601A6822F080721A601A6822F00102F4
:100BF0001A601A6842F480321A60094B1B6813F4B9
:100C0000003FFAD0064B9A6822F003029A609A6875
:100C100042F001029A601A6822F400221A607047BA
:100C2000003802401F2920D803281ED8DFE800F032
:100C3000020910170D48036C01228A401343036414
:100C400070470A48436C01228A401343436470474B
:100C50000648036B01228A4013430363704703482D
:100C6000436B01228A4013434363704700380240BC
:100C70004FF0E02300221A6170474FF0E022136921
:100C800043F002031361704710B50C4600F020FBDF
:100C90000DA3D3E9002300F0AFF800F093FB4FF071
:100CA000E023586100229A61094B01221A700CB1AD
:100CB000084B1C604FF0E022136943F001031361FD
:100CC00010BD00BFAFF3008000000000006AD840F4
:100CD000340100203801002008B50B4B1B688BB194
:100CE0000A4B1B7843B94FF0E0231A6922F0020245
:100CF0001A6100225A619A61034B1B6898474FF0B2
:100D0000E0231B6908BD00BF38010020340100202A
:100D10004FF0E023014AC3F80C2D70470400FA0598
:100D200008B5054B1878032800D908BD0130C0B2BA
:100D30001870FFF7C7FDF8E73C01002010B500214F
:100D40000220FFF76FFFFFF747FFFFF791FFFFF765
:100D500094FF24496420FFF797FF012200210846F1
:100D6000FFF7E8FD0223002211461046FFF72CFE94
:100D7000002211461046FFF7DBFE00220721104635
:100D8000FFF7D8FD012207210020FFF787FE164953
:100D90000720FFF70BFD07210020FFF7AFFC012123
:100DA0000720FFF7DBFC01210720FFF7C3FC17201A
:100DB000FFF702FF012404E000BF01330B4A934216
:100DC000FAD90B4B1B7843B1224600210846FFF7A6
:100DD000AFFE84F001040023F0E7064B1B68984740
:100DE00010BD00BF210D0208110D02083F420F0087
:100DF000100000204001002070B54FF0FF0C4CF4B3
:100E0000E06C1CEA11541DBF1CEA135594EA0C0F48
:100E100095EA0C0F00F0DEF82C4481EA030621EA83
:100E20004C5123EA4C5350EA013518BF52EA0335BE
:100E300041F4801143F4801338D0A0FB02CE4FF070
:100E40000005E1FB02E506F00042E0FB03E54FF0A0
:100E50000006E1FB03569CF0000F18BF4EF0010E98
:100E6000A4F1FF04B6F5007F64F5407404D25FEA94
:100E70004E0E6D4146EB060642EAC62141EA555147
:100E80004FEAC52040EA5E504FEACE2EB4F1FD0C89
:100E900088BFBCF5E06F1ED8BEF1004F08BF5FEA07
:100EA000500E50F1000041EB045170BD06F00046B9
:100EB00046EA010140EA020081EA0301B4EB5C0466
:100EC000C2BFD4EB0C0541EA045170BD41F480115E
:100ED0004FF0000E013C00F3AB8014F1360FDEBF83
:100EE000002001F0004170BDC4F10004203C35DA5F
:100EF0000C341BDC04F11404C4F1200500FA05F3E2
:100F000020FA04F001FA05F240EA020001F0004282
:100F100021F0004110EBD37021FA04F642EB0601F8
:100F20005EEA430E08BF20EAD37070BDC4F10C0422
:100F3000C4F1200500FA04F320FA05F001FA04F2E6
:100F400040EA020001F0004110EBD37041F10001D2
:100F50005EEA430E08BF20EAD37070BDC4F12005DD
:100F600000FA05F24EEA020E20FA04F301FA05F245
:100F700043EA020321FA04F001F0004121FA04F2ED
:100F800020EA020000EBD3705EEA430E08BF20EABD
:100F9000D37070BD94F0000F0FD101F000464000F7
:100FA00041EB010111F4801F08BF013CF7D041EA79
:100FB000060195F0000F18BF704703F0004652007D
:100FC00043EB030313F4801F08BF013DF7D043EA4E
:100FD0000603704794EA0C0F0CEA135518BF95EA04
:100FE0000C0F0CD050EA410618BF52EA4306D1D18B
:100FF00081EA030101F000414FF0000070BD50EAAA
:10100000410606BF1046194652EA430619D094EA33
:101010000C0F02D150EA013613D195EA0C0F05D11D
:1010200052EA03361CBF104619460AD181EA030171
:1010300001F0004141F0FE4141F470014FF0000029
:1010400070BD41F0FE4141F4780170BD81F0004176
:1010500002E000BF83F0004330B54FEA41044FEA9D
:10106000430594EA050F08BF90EA020F1FBF54EA38
:10107000000C55EA020C7FEA645C7FEA655C00F0D4
:10108000E2804FEA5454D4EB5555B8BF6D420CDDA5
:101090002C4480EA020281EA030382EA000083EA28
:1010A000010180EA020281EA0303362D88BF30BDC8
:1010B00011F0004F4FEA01314FF4801C4CEA11311E
:1010C00002D0404261EB410113F0004F4FEA03337D
:1010D0004CEA133302D0524263EB430394EA050F08
:1010E00000F0A780A4F10104D5F1200E0DDB02FA77
:1010F0000EFC22FA05F2801841F1000103FA0EF20B
:10110000801843FA05F359410EE0A5F120050EF1D0
:10111000200E012A03FA0EFC28BF4CF0020C43FA01
:1011200005F3C01851EBE37101F0004507D54FF00E
:10113000000EDCF1000C7EEB00006EEB0101B1F55E
:10114000801F1BD3B1F5001F0CD349085FEA3000A4
:101150004FEA3C0C04F101044FEA445212F5800FAF
:1011600080F09A80BCF1004F08BF5FEA500C50F14C
:10117000000041EB045141EA050130BD5FEA4C0C2F
:10118000404141EB0101013C28BFB1F5801FE9D28C
:1011900091F0000F04BF01460020B1FA81F308BFAF
:1011A0002033A3F10B03B3F120020CDA0C3208DD7B
:1011B00002F1140CC2F10C0201FA0CF021FA02F156
:1011C0000CE002F11402D8BFC2F1200C01FA02F1C6
:1011D00020FA0CFCDCBF41EA0C019040E41AA2BFEB
:1011E00001EB0451294330BD6FEA04041F3C1CDAB3
:1011F0000C340EDC04F11404C4F1200220FA04F0D3
:1012000001FA02F340EA030021FA04F345EA03017C
:1012100030BDC4F10C04C4F1200220FA02F001FA3E
:1012200004F340EA0300294630BD21FA04F02946C0
:1012300030BD94F0000F83F4801306BF81F4801159
:101240000134013D4EE77FEA645C18BF7FEA655CCC
:1012500029D094EA050F08BF90EA020F05D054EA9E
:10126000000C04BF1946104630BD91EA030F1EBFA3
:101270000021002030BD5FEA545C05D140004941A7
:1012800028BF41F0004130BD14F580043CBF01F59A
:10129000801130BD01F0004545F0FE4141F4700180
:1012A0004FF0000030BD7FEA645C1ABF194610465B
:1012B0007FEA655C1CBF0B46024650EA013406BF5C
:1012C00052EA033591EA030F41F4002130BD00BF1B
:1012D00090F0000F04BF0021704730B54FF48064D8
:1012E00004F132044FF000054FF0000150E700BF59
:1012F00090F0000F04BF0021704730B54FF48064B8
:1013000004F1320410F0004548BF40424FF00001A4
:101310003EE700BF42004FEAE2014FEA31014FEAE7
:1013200002701FBF12F07F4393F07F4F81F0605136
:10133000704732F07F4208BF704793F07F4F04BF81
:1013400041F40021704730B54FF4607401F000455E
:1013500021F000411CE700BF50EA010208BF7047BE
:1013600030B54FF000050AE050EA010208BF7047AF
:1013700030B511F0004502D5404261EB41014FF418
:10138000806404F132045FEA915C3FF4D8AE4FF020
:1013900003025FEADC0C18BF03325FEADC0C18BF03
:1013A000033202EBDC02C2F1200300FA03FC20FA54
:1013B00002F001FA03FE40EA0E0021FA02F11444A1
:1013C000BDE600BF4A0011D212F5001211D20DD5B0
:1013D0006FF47873B3EB62520ED44FEAC12343F03B
:1013E000004343EA505323FA02F070474FF00000E5
:1013F000704750EA013002D14FF0FF3070474FF094
:101400000000704730B51446002C9BB005461A46C4
:1014100005DA8B2303604FF0FF301BB030BD4FF473
:101420000273ADF80C3014BF04F1FF33234602936E
:1014300005934FF6FF7300910491ADF80E306946A5
:101440001E9B00F07BF8431CBCBF8B232B60002C41
:10145000E3D0009B00221A70DFE7000007B500937D
:1014600013460A46014603480068FFF7CBFF03B066
:101470005DF804FB14000020014B1868704700BFA2
:10148000140000202DE9F0478E681F46BE420B680D
:1014900082460C4690462DD8B1F90C2012F4906F7C
:1014A00026D06569096905EB4505A3EB010905EB44
:1014B000D5757B1C4B446D109D4238BF1D465305AE
:1014C00027D5294600F0B6FB064660B321694A4697
:1014D00000F036FBA38923F4906343F08003A381DB
:1014E000266165614E44A5EB09052660A5603E4670
:1014F000BE4200D93E4620683246414600F0B4FA6A
:10150000A3689B1BA3602368334423600020BDE8CD
:10151000F0872A4600F01AFC06460028E0D121692F
:10152000504600F01BFB0C23CAF80030A38943F09F
:101530004003A3814FF0FF30E9E700002DE9F04FB1
:1015400098468B891B069DB007460D46144610D55C
:101550000B6973B9402100F06DFB2860286130B938
:101560000C233B604FF0FF301DB0BDE8F08F4023EF
:101570006B610023099320238DF82930CDF80C806E
:101580003023DFF89C818DF82A304FF00109234683
:101590009A4613F8012B0AB1252AF9D1BAEB040BAC
:1015A0000BD05B46224629463846FFF76BFF0130D9
:1015B00000F0A780099A5A4409929AF80030002B4B
:1015C00000F09F8000234FF0FF32CDE905230AF1A0
:1015D000010A049307938DF853301A935446052259
:1015E00014F8011B4E4800F05BFA049AD8B9D006F3
:1015F00044BF20238DF85330110744BF2B238DF8AF
:1016000053309AF800302A2B15D0079A5446002000
:101610004FF00A0C214611F8013B303B092B4BD906
:10162000B0B1079214E0A0EB080309FA03F31343E7
:101630000493A246D2E7039B191D1B680391002B5C
:10164000BBBF5B4242F0020207930793B8BF04920C
:1016500023782E2B0AD163782A2B32D1039B1A1DB3
:101660001B68039243EAE37302340593DFF8B4A0E6
:1016700021780322504600F013FA38B1049BA0EB06
:101680000A004022824013430134049314F8011BE2
:1016900025488DF82810062200F002FA002836D0DE
:1016A000224B1BBB039B073323F007030833039331
:1016B000099B334409936AE70CFB02320C46012074
:1016C000A8E700230134059319464FF00A0C204681
:1016D00010F8012B303A092A03D9002BC6D0059106
:1016E000C4E70CFB012104460123F0E703AB0093A0
:1016F0002A460F4B04A93846AFF30080421C064629
:10170000D6D1AB895B063FF52DAF09982CE703AB2B
:1017100000932A46064B04A9384600F079F8EDE715
:10172000341F02083A1F02083E1F02080000000092
:10173000851402082DE9F047164698468A680B6919
:10174000DDF820909342B8BF1346336091F84320F0
:1017500007460C460AB1013333602368990642BF3D
:10176000336802333360256815F0060506D104F1AD
:10177000190AE36832689B1AAB4226DC94F84330BE
:101780002268003B18BF012392062BD404F14302C8
:1017900041463846C84701301ED02368226903F00D
:1017A0000603042B02BFE5683368ED1AA3680CBF7B
:1017B00025EAE57500259342C4BF9B1AED18002663
:1017C0001A34B5421AD1002008E00123524641469E
:1017D0003846C847013003D14FF0FF30BDE8F087ED
:1017E0000135C6E7E1185A1C302081F84300224435
:1017F00094F8451082F843100233C7E701232246CC
:1018000041463846C8470130E6D00136D9E70000E6
:101810002DE9FF470F7E0C9E782F914680460C469F
:101820009A4601F1430207D8622F0AD8002F00F030
:10183000DD80582F00F0C38004F1420684F8427026
:101840003AE0A7F16303152BF6D801A151F823F074
:10185000A9180208BD180208391802083918020828
:101860003918020839180208BD1802083918020888
:10187000391802083918020839180208D319020861
:101880004B1902088B190208391802083918020886
:10189000F5190208391802084B190208391802080C
:1018A000391802089319020833681A1D1B68326040
:1018B00004F1420684F842300123A8E0316823682D
:1018C000081D30601E0601D50D6803E05D06FBD5DE
:1018D000B1F900506168002D78DA2D20002984F8D4
:1018E0004300A1602DDA5E486D420A231646B5FB1F
:1018F000F3F103FB1157C75D06F8017D2F46BB428C
:101900000D46F4D9082B0BD12368DF0708D52369CE
:1019100061689942DEBF302306F8013C06F1FF36CC
:10192000921B2261CDF800A04B4603AA21464046F7
:10193000FFF700FF01306FD14FF0FF3004B0BDE87A
:10194000F08723F004032360CDE72168336808069D
:1019500053F8045B02D4490648BFADB26F2F40482C
:10196000336014BF0A230823002184F843106668FB
:10197000A660002EBADB216821F004012160002D51
:10198000B4D1002EB2D11646BCE7236843F0200341
:1019900023603448782784F84570236831681F062F
:1019A00051F8045B02D45F0648BFADB23160D9077D
:1019B00044BF43F0200323601DB11023D4E728481F
:1019C000E9E7236823F020032360F6E724480A238D
:1019D000CDE7336825686169181D30602E061B68E5
:1019E00001D5196002E06806FBD519800023236148
:1019F000164697E733681A1D32601E686268002138
:101A0000304600F04DF808B1801B606063682361C8
:101A1000002384F8433085E723693246494640462F
:101A2000D047013088D023689B0714D4E068039B1B
:101A30009842B8BF184681E70123324649464046DE
:101A4000D04701303FF478AF0135E36803995B1A62
:101A5000AB42F1DCEAE7002504F11906F5E700BF27
:101A6000451F0208561F0208884210B501EB020408
:101A700002D98442234607D8431EA14208D011F858
:101A8000012B03F8012FF8E7024401468A4200D1F6
:101A900010BD13F8014D02F8014DF7E700000000FA
:101AA00001F0FF01102A2BDB10F0070F08D010F80F
:101AB000013B013A8B422DD010F0070F42B3F6D113
:101AC000F0B441EA012141EA014122F007047FF02C
:101AD00000070023F0E80256083C85EA010586EA83
:101AE000010685FA47F5A3FA87F586FA47F6A5FABF
:101AF00087F68EB9EED1F0BC01F0FF0102F00702CB
:101B000032B110F8013B013A83EA010313B1F8D175
:101B10000020704701387047002D06BF3546033856
:101B2000073815F0010F07D1013015F4807F02BF8F
:101B3000013015F4C03F0130F0BC0138704700BFE0
:101B40000A44914200F1FF3300D1704710B511F8FB
:101B5000014B03F8014F9142F9D110BD38B505464C
:101B6000002941D051F8043C0C1F002BB8BFE418E9
:101B700000F0E0F81D4A136833B96360146028462A
:101B8000BDE8384000F0DCB8A34208D9206821182D
:101B90008B4201BF19685B6809182160EDE71A469E
:101BA0005B680BB1A342FAD911685018A0420BD15F
:101BB00020680144501883421160E0D118685B68C6
:101BC000536008441060DAE702D90C232B60D6E793
:101BD000206821188B4204BF19685B68636004BFEA
:101BE000091821605460CAE738BD00BF48010020D1
:101BF00070B50F4E0C463168054611B900F0D4F8A7
:101C000030602146284600F0CFF8431C03D14FF046
:101C1000FF34204670BDC41C24F00304A042F8D059
:101C2000211A284600F0C0F80130F2D1EFE700BFDA
:101C3000440100202DE9F843CD1C25F003050835AB
:101C40000C2D38BF0C25002D064601DBA94204D916
:101C50000C2333600020BDE8F883DFF8D48000F067
:101C600069F8D8F800301C4644BB29463046FFF7D7
:101C7000BFFF431C044658D1D8F800402746002F28
:101C800043D1002C4BD023683946304604EB03097E
:101C900000F08AF8814542D121686D1A2946304604
:101CA000FFF7A6FF01303AD023682B442360D8F811
:101CB00000305A6862BBC8F800700FE02268521BFF
:101CC00020D40B2A17D96119A342256018BF596087
:101CD000636808BFC8F8001062514B60304600F0DE
:101CE0002FF804F10B00231D20F00700C21A1CBFBF
:101CF0001B1AA350AFE76268A3420CBFC8F80020CC
:101D00005A60EBE723466468AEE73C467F68B6E777
:101D10001A465B68A342FBD100235360DEE70C2325
:101D20003360304600F00CF894E70560D6E700BF5A
:101D300048010020014800F047B800BF4C010020D6
:101D4000014800F042B800BF4C0100202DE9F041ED
:101D5000804615460C4621B9BDE8F0411146FFF713
:101D600069BF2AB9FFF7FAFE00242046BDE8F081DA
:101D700000F02CF88542064602D8B5EB500FF4D897
:101D800029464046FFF756FF07460028ECD0B542EB
:101D90002A46214628BF3246FFF7D2FE214640465A
:101DA000FFF7DCFE3C46E0E738B5064D002304466D
:101DB00008462B60FEF736FB431C02D12B6803B1AB
:101DC000236038BD740000207047704751F8043C10
:101DD000181F002BBCBF0B58C018704753746163A9
:101DE0006B206672616D653A0A0000002052302057
:101DF0003D2020253038580A0000000020523120B4
:101E00003D2020253038580A0000000020523220A2
:101E10003D2020253038580A000000002052332091
:101E20003D2020253038580A000000002052313271
:101E3000203D20253038580A00000000204C522058
:101E40003D2020253038580A000000002050432053
:101E50003D2020253038580A000000002050535201
:101E6000203D20253038580A000000004653522FEC
:101E70004641523A0A0000002043465352203D207A
:101E800020253038580A00002048465352203D2073
:101E900020253038580A00002044465352203D2067
:101EA00020253038580A00002041465352203D205A
:101EB00020253038580A0000204D4D464152203D23
:101EC00020253038580A00002042464152203D204B
:101ED00020253038580A00004D6973630A0000005D
:101EE000204C522F4558435F52455455524E3D2089
:101EF000253038580A0000005B48617264466175FD
:101F00006C745D0A000000005B4275734661756C7D
:101F1000745D0A005B55736167654661756C745D3D
:101F20000A0000000000000000000000010203049D
:101F300006070809232D302B2000686C4C006566CD
:101F4000674546470030313233343536373839410A
:101F50004243444546003031323334353637383920
:101F6000616263646566000010000000000000000C
:101F7000017A5200027C0E011B0C0D0010000000C3
:101F80001800000000000000100000000000000029
:101F90001000000000000000017A5200027C0E01D7
:101FA0001B0C0D003800000018000000F4FAFFFFC1
:101FB0009E00000000510E108404850386028701F4
:101FC0005BC7C6C5C40E004C0A420B0A420B0E107A
:101FD000840485038602870151C7C6C5C40E00006C
:081FE000C0FAFF7F01000000C0
:101FE8007856341270000020000000000024F4002D
:101FF80001FFFFFF180000200000000000000000A3
:1020080068000000D0000000000000000000000090
:1020180000000000000000000000000000000000B8
:1020280000000000000000000000000000000000A8
:102038000000000000000000000000000000000098
:082048000000000032547698FC
:040000050802019557
:00000001FF
